S01800006275696C642F6D6963617A2F6D61696E2E73726563E5
S11300000C945F010C947B190C9485190C948F1932
S11300100C9499190C94A3190C94AD190C94B71958
S11300200C94F2190C947E010C947E010C9420180B
S11300300C947B170C940A180C945E190C940E17EC
S11300400C9453170C94FC190C942A150C947E01EF
S11300500C9491150C947E010C947E010C947E01F9
S11300600C9415180C94DE160C94BD160C94C8163A
S11300700C94D3160C94F1160C94A0160C947E01D7
S11300800C94B2160C947E010C947E012C0EE40E9A
S1130090260F280F2F0F540F740F940F9A0FA30FCE
S11300A00210061046105F10651095103E1158118D
S11300B06D11701299120413000021104220633054
S11300C08440A550C660E770088129914AA16BB1AC
S11300D08CC1ADD1CEE1EFF1311210027332522254
S11300E0B5529442F772D662399318837BB35AA3FC
S11300F0BDD39CC3FFF3DEE3622443342004011424
S1130100E664C774A44485546AA54BB5288509954B
S1130110EEE5CFF5ACC58DD55336722611163006F3
S1130120D776F6669556B4465BB77AA7199738879B
S1130130DFF7FEE79DD7BCC7C448E5588668A778B3
S11301404008611802282338CCC9EDD98EE9AFF9EB
S1130150488969990AA92BB9F55AD44AB77A966A93
S1130160711A500A333A122AFDDBDCCBBFFB9EEB3B
S1130170799B588B3BBB1AABA66C877CE44CC55C63
S1130180222C033C600C411CAEED8FFDECCDCDDD8B
S11301902AAD0BBD688D499D977EB66ED55EF44E33
S11301A0133E322E511E700E9FFFBEEFDDDFFCCFDB
S11301B01BBF3AAF599F788F8891A981CAB1EBA12F
S11301C00CD12DC14EF16FE18010A100C230E320AB
S11301D00450254046706760B9839893FBA3DAB353
S11301E03DC31CD37FE35EF3B1029012F322D232FB
S11301F03542145277625672EAB5CBA5A895898523
S11302006EF54FE52CD50DC5E234C324A01481044A
S11302106674476424540544DBA7FAB79987B897F2
S11302205FE77EF71DC73CD7D326F2369106B0169A
S113023057667676154634564CD96DC90EF92FE9B2
S1130240C899E9898AB9ABA94458654806782768EA
S1130250C018E1088238A3287DCB5CDB3FEB1EFB92
S1130260F98BD89BBBAB9ABB754A545A376A167A3A
S1130270F10AD01AB32A923A2EFD0FED6CDD4DCD62
S1130280AABD8BADE89DC98D267C076C645C454C8A
S1130290A23C832CE01CC10C1FEF3EFF5DCF7CDF32
S11302A09BAFBABFD98FF89F176E367E554E745EDA
S11302B0932EB23ED10EF01E00081C181410112407
S11302C01FBECFEFD0E1DEBFCDBF11E0A0E0B1E0B3
S11302D0EEEFFDE300E00BBF02C007900D92A633E2
S11302E0B107D9F714E0A6E3B1E001C01D92A7312C
S11302F0B107E1F70E949D130C94FD1E0C940000BD
S1130300362F272FFC014383528361837083BA0104
S1130310832F922F0895FC01918180E0208130E0A9
S1130320282B392BC90108959FB7F8948093620252
S11303309FBF0895282F9FB7F89481E030916202FF
S1130340321380E09FBF089580912001882339F4FF
S113035081E090915301923019F080E0089580E09B
S11303600895C0980895B89A08958FB7F894109294
S113037061028FBF08959FB7F89481E020916102D4
S1130380211180E09FBF089586B70895FC01218163
S113039030E0908180E0282B392BC901089588230F
S11303A011F06E9A08956E980895C09A089587B7CB
S11303B08F7E87BF08954FB7F8942091A90130919B
S11303C0AA018CB59DB556B752FF04C02F5F3F4FAD
S11303D08CB59DB54FBF40E050E0A90133272227DB
S11303E0A0E0B0E0282B392B4A2B5B2BB901CA01C2
S11303F008956F927F928F929F92AF92BF92CF9205
S1130400DF92EF92FF920F931F93A090A401B090FC
S1130410A501C090A601D090A7019501A60160E0B6
S113042070E080E090E0FEE4AF2EE3E8BE2ECC2442
S1130430DD24EE24FF2400E010E00E94611A39015B
S11304404A0100E20E942B1B59016A01A401930195
S113045056954795379527952A0D3B1D4C1D5D1DD7
S113046057FF05C05F772F5F3F4F4F4F5F4F20937C
S1130470A4013093A5014093A6015093A701C9019B
S11304801F910F91FF90EF90DF90CF90BF90AF90AE
S11304909F908F907F906F900895DE9A0895DE98D4
S11304A0089589B78F7B89BF089587B78F7D87BFEC
S11304B008959FB7F89481E03091C9012091CA0151
S11304C0321380E09FBF0895109265031092640375
S11304D010929A0110925B0210926D0310929E0189
S11304E01092D8011092D70108958091C7038F3FCD
S11304F089F0282F30E0F901E858FE4F908190935D
S1130500C7039F3F11F490930B0428583E4F9FEF6D
S1130510F901908308959FB7F8948CB95E9A9FBFB0
S1130520089583B783BF00B600FCFDCF0895FC0196
S1130530238130E040E050E0808190E0A0E0B0E032
S1130540B82FAA2799278827282B392B4A2B5B2BCE
S1130550618170E080E090E0CB0177276627262B4D
S1130560372B482B592B828190E0A0E0B0E0BA2FC2
S1130570A92F982F8827282B392B4A2B5B2BB901BD
S1130580CA01089581E0849B80E00895882311F0D6
S11305906F9A08956F98089580E00E94CF01BA9AE7
S11305A0BB98B99A6C9A80E00E94C602709A6B98C4
S11305B06A98689881E00E94CF0108959FB7F894E3
S11305C0E82FF0E0E858FE4F20812F3F49F421E066
S11305D030E040910B04481729F020E030E002C0DD
S11305E021E030E02115310589F42091C7032F3F24
S11305F019F48093C70306C0E0910B04F0E0E858B7
S1130600FE4F808380930B0480E001C085E09FBF90
S1130610089590914201992399F5882389F581E001
S11306208093420180911501809343012091370109
S113063021702093760180911A0190911B0190936F
S1130640450180934401809138018093460131E053
S1130650211130E020913701267EE32FF0E0EE0FE8
S1130660FF1FEA5EFE4F8081918190931B0180936E
S11306701A01232B2093370185E00E94DE0208959E
S11306808091370180FF02C08B7F01C08D7F8093F2
S1130690370108951F93182F81E00E94CF011FB9DD
S11306A0779BFECF8FB11F910895EF92FF920F9326
S11306B01F93182F062FE72EFFB6F8940E94BB0154
S11306C0882319F0FFBE80E00AC0FFBE812F0E947C
S11306D04A038E2D0E944A03802F0E944A031F91D1
S11306E00F91FF90EF900895CF92DF92EF92FF92D7
S11306F00F931F93CF93DF934FB7F8940091CF03D9
S11307001091D003E0905602F0905702C091D101AD
S1130710D091D20120915C0130915D01CE010A9605
S11307202817390708F4C9014FBF6C010894C108A0
S1130730D10813C00115110529F0F801EC0FFD1FB4
S1130740808101C080E00E944A03E114F10421F099
S1130750F701EC0FFD1F80832196CC15DD0550F3C6
S113076081E00E94C6028FB7F8940115110531F09B
S1130770F801EC0FFD1F90819FB901C01FB8D09301
S1130780D201C093D1018FBF80E0DF91CF911F913F
S11307900F91FF90EF90DF90CF9008952FB7F894CA
S11307A050935D0140935C019093D0038093CF03F9
S11307B070935702609356021092D2011092D101A5
S11307C02FBF4115510521F08FB10E947403089584
S11307D080E10E94DE0280E008950F931F93CF937F
S11307E0DF93EC01062F1FB7F8940E94BB01882306
S11307F019F01FBF10E012C01FBF8FE790E0909365
S1130800BD018093BC018FE70E944A03182F80E04A
S113081090E0BE01402F50E00E94CE03812FDF9173
S1130820CF911F910F9108950F931F93CF93DF934F
S1130830C091A201D091A3011AA5112309F41FE1CB
S11308400E94B10180919301811739F0612F70E00A
S1130850606E706885E10E945503109393010881CE
S11308601FB7F8940E94BB01882311F01FBF12C068
S11308701FBF8EE390E09093BD018093BC018EE393
S11308800E944A03402F4150CE0160E070E050E0E6
S11308900E94CE03DF91CF911F910F9108958FB7DE
S11308A0F894109263028FBF08950F931F931FB79C
S11308B0F89402B70E94C40120915F013091600155
S11308C0409161015091620181FF0FC091B782B7DD
S11308D02F5F3F4F4F4F5F4F290F311D411D511D5A
S11308E0280F311D411D511D04C0200F311D411D14
S11308F0511D1FBFB901CA011F910F910895EF92B5
S1130900FF920F931F932091E40121FF1BC02091BC
S1130910DC013091DD014091DE015091DF017B016A
S11309208C01E21AF30A040B150B2091E0013091BB
S1130930E1014091E2015091E301E216F30604075C
S1130940150710F52091ED0121FF45C02091E50127
S11309503091E6014091E7015091E8017B018C015F
S1130960E21AF30A040B150B8091E9019091EA0154
S1130970A091EB01B091EC01E816F9060A071B07F8
S113098050F121E030E002C020E030E0C901E3E0B2
S1130990880F991FEA95E1F7820F931FFC01E45237
S11309A0FE4F208520FF07C0FC01EC51FE4F8081E3
S11309B08D7F808310C084819581A681B781208139
S11309C0318142815381820F931FA41FB51F8083FD
S11309D09183A283B38384E10E94DE021F910F916D
S11309E0FF90EF900895CF92DF92EF92FF920F93D2
S11309F01F931FB7F89401B7C2B60E94C4010C1527
S1130A0011F081FF02C01FBF6BC08091C801882311
S1130A10D1F10E94550420915D0230915E02409113
S1130A205F0250916002C0907101D0907201E09019
S1130A307301F0907401621B730B840B950B6C159E
S1130A407D058E059F0528F01092C80186EE61E0B1
S1130A501EC0D701C601820F931FA41FB51F20918A
S1130A605F01309160014091610150916201821BEC
S1130A70930BA40BB50B873E9105A105B10518F4A2
S1130A80823020F402C086EE01C082E060E0782F5C
S1130A90715000B601FCFDCF92B7791709F4782F95
S1130AA080915F0190916001A0916101B091620118
S1130AB09C01AD012F5F3F4F4F4F5F4F270F311DFB
S1130AC0411D511D281739074A075B0710F4782F79
S1130AD0709571BF1FBF662319F083E10E94DE0287
S1130AE01F910F91FF90EF90DF90CF9008950F9397
S1130AF020936E0330936F034093700350937103FC
S1130B0000939201EFB7F894F1E0F093C801609379
S1130B105D0270935E0280935F0290936002209363
S1130B207101309372014093730150937401EFBFCC
S1130B300E94F3040F9108951F931FB7F8948091B6
S1130B400704882339F40E94DE02882319F481E023
S1130B50809307041FBF1F9108952D3108F042C0F0
S1130B60FA0135966183DA0115967C93159786838D
S1130B70248380913B0190913C010097A9F53FB7F4
S1130B80F89485E080933E0110923F0150933A011E
S1130B904093390182E090E090933C0180933B01C3
S1130BA01092410110924001245F20933D013FBF08
S1130BB09FB7F8948091C201882331F481E0809337
S1130BC0C2011092C30101C080E09FBF882321F0BD
S1130BD00E949C0580E0089510923C0110923B0114
S1130BE081E0089582E0089585E00895809152019E
S1130BF0882309F052C080911D018F3F09F04DC038
S1130C000E94BB01882309F448C081E080936802F4
S1130C1080917701882311F0109268028091680214
S1130C208823E9F10E94A401882311F00E94D501D0
S1130C3080915301823049F580912001882329F560
S1130C4020911E012F3FE9F08FEF80932001822F26
S1130C5090E0FC01E055FE4F308130931E013F3F90
S1130C6011F430931F0180559E4F3FEFFC013083F8
S1130C702093960181E08093530181E10E94DE027A
S1130C8004C02093200110925301809153018823C2
S1130C9041F40E94CF0180E0089581E0089585E049
S1130CA0089580E008951F931FB7F89490911D0153
S1130CB0981719F01FBF81E033C08FEF80931D0197
S1130CC0E0915201EE2329F080E0F5E02E2F30E090
S1130CD005C00E94B5010E94F6051CC06F2F0E943A
S1130CE09C1BA901092E02C0559547950A94E2F769
S1130CF040FF13C090931D0121E030E002C0220F99
S1130D00331F9A95E2F720952E23209352018FE00A
S1130D100E94DE021FBF80E003C0892F8F5FDECFF9
S1130D201F91089584E00E945306089583E00E9471
S1130D30530680E008950E94B10180915A01909178
S1130D405B0161E00E94ED03089580E880937501E2
S1130D50109299011092CB031092C6031092950140
S1130D6008950F931F93082F1FB7F8940E94BB0197
S1130D70882319F01FBF80E004C01FBF802F0E948A
S1130D804A031F910F91089589E00E94B1060895C6
S1130D90FC0115A68E9640E050E060E070E80E94E9
S1130DA080010895EF92FF920F931F930E94DB013D
S1130DB07B018C012091B2013091B3014091B401C7
S1130DC05091B5018091AC019091AD01A091AE011B
S1130DD0B091AF01820F931FA41FB51FE216F30653
S1130DE00407150730F082179307A407B50758F0D6
S1130DF005C082179307A407B50790F5E816F9060E
S1130E000A071B0768F59C01AD012E193F09400B29
S1130E10510B213060E8360760E0460760E0560772
S1130E2010F1D801C70180509048AF4FBF4F809355
S1130E30B2019093B301A093B401B093B5012050D3
S1130E403048404050402093AC013093AD01409372
S1130E50AE015093AF0120E030E840E050E013C011
S1130E6020E030E0A9018093B2019093B301A093F4
S1130E70B401B093B5011092AC011092AD0110927F
S1130E80AE011092AF018CB59DB50396AC014E191D
S1130E905F094217530718F4C9018E0D9F1D00976F
S1130EA011F481E090E001979BBD8ABD80E186BF8B
S1130EB087B7806187BF1F910F91FF90EF900895CE
S1130EC0DF92EF92FF920F931F937B018C010E949C
S1130ED0DB01DFB6F8946093B2017093B3018093A1
S1130EE0B4019093B501E092AC01F092AD0100938E
S1130EF0AE011093AF010E94D206DFBE1F910F9185
S1130F00FF90EF90DF9008951F931FB7F8940E940D
S1130F10F90166E470E00E94A81B0B969093090403
S1130F2080930804BC0180E090E00E9460071FBF2A
S1130F301F9108958FB7F894609167028FBF85E081
S1130F40689FB0011124625D7E4F706488E10E9445
S1130F50550308951F931FB7F89480919401882333
S1130F6031F061E070E08091CE03882311F460E0F9
S1130F7070E0762F6627770F770F770F8091A101A6
S1130F80882331F081E090E020916602222311F45D
S1130F9080E090E0626E7262F4E0880F991FFA9527
S1130FA0E1F7682B792B81E10E9455031FBF1F9144
S1130FB00895DF93CF930F92CDB7DEB789830E9454
S1130FC0550290E296BF8981882319F08EB580641A
S1130FD002C08EB58F7B8EBD87B7806287BF80E0ED
S1130FE00F90CF91DF91089581E00E94D907089571
S1130FF09FB7F894809159028A3029F481E02091B6
S11310009A01243009F080E09FBF882341F082E0F8
S11310100E94DE028FB7F8941092360105C08FB794
S1131020F89491E0909336018FBF0895E8EBF0E0D7
S11310306927660FF11DE60FF11DC895382F202D85
S11310403196C8953025C90108950F931F93082F31
S1131050162F80919A01813079F0813038F08230F6
S113106009F441C0833009F002C14EC0002309F4E1
S113107017C10E94640211C1002309F011C18091BB
S1131080D7019091D8010E9416089093D8018093BB
S1131090D70182E080939A0110936D03143409F010
S11310A0E6C080913701982F917080FF03C0869528
S11310B0869501C08695817009F0D9C08091370169
S11310C0992311F0846001C082608093370180917C
S11310D03701877E886080933701109238018FEF43
S11310E080931501DDC0002309F0C1C060939E0107
S11310F08091D7019091D8010E9416089093D8014D
S11311008093D70183E0CAC080915B028F3F09F4CA
S1131110AEC0002309F447C0823008F4A8C0E091AF
S11311206403EE2311F0E15001C0E2E0AE2FB0E021
S1131130AC59BC4F12968C911297382F20E0EE23B5
S113114011F0E15001C0E2E0F0E0EC59FC4F4281C3
S113115050E0422B532B2091D7013091D8014217F4
S1131160530709F084C080E00E94090320919E0186
S1131170E091C9013091CA018E2F8F5F863010F43F
S1131180982F01C090E0931709F471C0F0E0E75381
S1131190FE4F22838093C901863010F01092C9015A
S11311A00E949C0564C0823008F44DC0E091650340
S11311B0F0E0EC59FC4F228130913701932F969542
S11311C0969596959370892F90E08130910521F042
S11311D08230910501F50FC0832F877E8061809353
S11311E03701222311F080E001C085E080933801AB
S11311F02093150110C080913801843360F4E0918C
S11312001A01F0911B01E80FF11D20838091380130
S11312108F5F809338018091D7019091D8012091FC
S11312206503E22FF0E0EC59FC4F62812F5F2093BD
S11312306503233010F0109265030E941608909302
S1131240D8018093D70180916403E82FF0E0EC5932
S1131250FC4F12838F5F80936403833010F01092ED
S1131260640380915B028F5F80935B0219C00E94CC
S11312706402809147018D7F8093470181E00E9441
S1131280090380913601882331F084E080939A0128
S11312900E94F80705C0002319F081E080939A01A9
S11312A01F910F9108959FB7F89480934E019FBFAB
S11312B08BE00E94DE0208951F93182F21E030E096
S11312C03093550120935401109277010E94F60542
S11312D0812F0E9453091F9108950F931F931FB7E5
S11312E0F89480915401909155018830910589F4C6
S11312F00E94C4060E9496060E94D50181E090E0F7
S1131300909355018093540183E00E9453091FBFB9
S11313102FC00E94B10180910C04882311F085E054
S113132001C084E00E94B10683FD05C080E00E94F4
S1131330B10683FD04C001E083E090E003C000E057
S113134085E090E090935501809354010E94D5016B
S11313501FBF002339F010925E010E9496060E947E
S1131360840706C060E471E080E090E00E946007BA
S11313701F910F910895CF92DF92EF92FF920F93F6
S11313801F93DF93CF930F92CDB7DEB76C01142F69
S1131390F52E0FB7F89469830E94BB0169818823F5
S11313A019F00FBF00E019C00FBFC60ED11C8C2D61
S11313B080680E944A03082FC60196958795807C11
S11313C00E944A03412F5F2D6A0114E0F6018191C6
S11313D06F010E944A031150C9F7802F0F90CF91DB
S11313E0DF911F910F91FF90EF90DF90CF900895C0
S11313F0DF93CF9300D000D0CDB7DEB78FB7F8948A
S113140020919F019091A001AE014F5F5F4F29830E
S1131410FA0191832091B6019091B7012B839C83AB
S11314208FBF88E691E060E00E94BB090F900F90A7
S11314300F900F90CF91DF910895CF93DF93C1ED7B
S1131440D3E0FE0135968FEF8183808384E6809319
S1131450DC038091D3019091D4010097F9F4D093E7
S1131460D401C093D3018CE1848380911C0188232F
S1131470B9F0CF010E94C601BC0110921C0184E6A0
S1131480AE012CE10E94AD05882359F091E09093C0
S11314901C011092D4011092D30103C085E001C055
S11314A080E0DF91CF9108958DED93E020914A0182
S11314B02C3110F430E002C02CE130E0FC018CE16E
S11314C0DF011D928A95E9F780E090E01AC0DC0103
S11314D0A352BC4F50914801E52FF0E0E659FD4F6F
S11314E0608140914A01442351F05F5F5093480169
S11314F05A3F11F410924801415040934A016C93B1
S113150001968217930719F70E941D0A882319F080
S113151088E00E94DE020895882381F4662359F44A
S113152080914A01882319F00E94540A089581E0A9
S113153080934B01089588E00E94DE020895EF92A3
S1131540FF920F931F93CF93DF93F82EE62EE82F8D
S1131550F0E0EE0FFF1FED52FE4F11821082109249
S11315601C01C091D301D091D401209721F0809126
S1131570CC0380FF03C081E080931C0180911C0197
S1131580882391F48E010B5F1F4FC8010E94C6018E
S1131590BC01F8018681AE0124810E94AD05882337
S11315A019F087E00E94DE028F2D6E2D0E948C0AB6
S11315B0DF91CF911F910F91FF90EF900895DF93EA
S11315C0CF930F92CDB7DEB790914B01913059F480
S11315D090914A019D3738F092E090934B018983B2
S11315E00E94540A89819FB7F89420914A012A3FA6
S11315F0B0F430914901E32FF0E0E659FD4F8083C8
S1131600832F8F5F809349018A3F11F4109249011F
S11316102F5F20934A019FBF20E030E003C09FBFAB
S11316202FEF3FEFC9010F90CF91DF910895809183
S1131630BA019091BB010097F9F421E030E03093B6
S11316406C0320936B0381E991E09093BB01809339
S1131650BA0110929C0110929B0181E080939D013C
S11316605E9A569A8091910130939C0120939B013C
S11316700E948B0280E0089585E0089580914701DF
S11316808E7F809347018EE7809391010E94170B10
S11316900895982F9D57923050F49091470191608E
S11316A09093470190E2982790935A028DE7809394
S11316B091010E94170B08959FB7F894E82FF0E06A
S11316C0EF59FD4F8081882321F481E0808380E0FD
S11316D001C081E09FBF08950F931F93182F0FB788
S11316E0F89480E00E945C0B8823E1F510931D01BF
S11316F00E94A401882311F08FE010C0809153014F
S1131700882311F40E94CC0280915301882349F468
S113171081E0809353011092960181E10E94DE02E0
S11317202DC08091B0018F3F49F481E090E0209179
S11317301F01222329F080E090E002C081E090E0C4
S11317400097E1F480911E018F3F19F410921E015D
S113175006C0E0911F01F0E0E055FE4F10821092A8
S11317601F010CC021E030E002C0220F331F1A9584
S1131770E2F780915201822B809352010FBF80E0E7
S11317801F910F9108950F931F93082F1FB7F8947B
S113179080E00E945C0B882319F01FBF85E01BC00A
S11317A00E94A401882379F480915301882379F459
S11317B082E080935301109220010E94CC020E9487
S11317C0B3010E94B10100931D0180E003C00E9497
S11317D0B50181E01FBF1F910F91089582E090E051
S11317E090938F0180938E0181E080939901809181
S11317F01D01843029F084E00E94C30B882319F46E
S11318000E949B06089584E00E946C0B08951F9328
S11318101FB7F89480918E0190918F010097D1F0B9
S11318201092990180919501882311F0B79904C011
S11318300E9908C0882319F08150809395010E9465
S1131840EE0B0AC081E090E090938F0180938E01AB
S1131850109295010E9492061FBF1F9108950E9445
S1131860A5060E94D5010E94B10188E00E94B1063C
S113187088E00E94B1060E94D5010E9492060E944F
S1131880070C0895EF92FF920F931F93CF93DF936A
S11318908C018091BC0186FF51C18F7B8F3309F08D
S11318A090C1C0915A01D0915B014881409390014D
S11318B080918E0190918F018530910509F444C087
S11318C08630910509F492C08230910509F02FC148
S11318D085E090E090938F0180938E015091750183
S11318E0242F30E0852F90E02817390754F5B79955
S11318F007C00E9905C0842F8095850F80937501CC
S11319004A32F8F44423B1F0BE016F5F7F4F483090
S113191028F080E090E047E050E009C086E090E0E5
S113192090938F0180938E0180E090E050E00E94BC
S1131930CE0347C1109299010E94D5010E949206DC
S1131940F3C00E942F0C3DC186E090E090938F017C
S113195080938E018091A101882309F440C0809175
S113196066028823E1F58E010F5F1F4FC8010E94B4
S11319708B0185FF34C036E0E32EF12CEC0EFD1E06
S1131980C7010E948B014FB7F8942091B6013091A2
S1131990B7014FBF8217930739F0C7010E948B012B
S11319A02FEF8F3F9207D9F4C8010E948B018770F3
S11319B090708130910599F40E94D5010E94B10183
S11319C08AE00E94B1060E94D5010E94B101609193
S11319D090016750CE0108960E94ED03F2C0BE014B
S11319E0685F7F4F4091900147509ECF0E94D50180
S11319F080919501882311F40E94920680919501AB
S1131A00882311F0B7990AC00E9B08C08091C603C1
S1131A10882321F0909190019B3038F480915A01F1
S1131A2090915B010E94C8062FC08130A1F480917F
S1131A305A0190915B01E091CB03F0E0EE0FFF1FA0
S1131A40EE0FFF1FEE58FC4F40815181628173817C
S1131A508E960E9480018091CB0390E0019687705E
S1131A6090708093CB038091C60381508093C6030A
S1131A70882351F080915A0190915B010E94C8061D
S1131A801092CB031092C60380919001FE01E80FDF
S1131A90F11D808187FF48C00115110509F444C078
S1131AA0CE0101960E948B01877030915A012091DA
S1131AB05B01823099F5E091A201F091A301309786
S1131AC099F180915401909155018730910561F508
S1131AD0832FEC017E01F22EE70193818B8198170D
S1131AE019F50E94D701A091A201B091A3019D0113
S1131AF0285D3F4F888191E0F9019483C80FD11D7F
S1131B00CE010197FC01808198968C9388818F7710
S1131B10F901818380E00E945C0906C0813021F4D0
S1131B2082E10E94DE024DC00E94070C4AC010925E
S1131B3099010E94D5010E94920643C08E3309F098
S1131B4040C00E94D5018091540190915501883084
S1131B50910591F40E94B1010E94C4060E94D5012E
S1131B600E94960681E090E0909355018093540181
S1131B7083E00E94530925C080910C04882349F412
S1131B8084E090E090935501809354010E946D0984
S1131B9018C00E94960683E090E0909355018093CC
S1131BA054010E94F90166E371E00E94A81B0B96A0
S1131BB09093700180936F01BC0180E090E00E94DB
S1131BC06007DF91CF911F910F91FF90EF900895DF
S1131BD01F9383E00E94C30B182F882319F083E01E
S1131BE00E946C0B812F1F9108958FB7F89408956C
S1131BF08FBF08958FB7F89490914B01923011F4F0
S1131C008FBF0EC090914A01992321F48FBF21E028
S1131C1030E008C092E090934B018FBF0E94540AB9
S1131C2020E030E0C9010895AF92BF92CF92DF92D5
S1131C30EF92FF920F931F93CF93DF93E82FF0E07F
S1131C40E631F10508F064C5EA5BFF4FEE0FFF1FB4
S1131C500590F491E02D09943FB7F894109207048D
S1131C609091590281E0983009F080E021E09930A8
S1131C7009F020E0882311F4222351F01092590234
S1131C80E091DB01F0E0EE0FFF1FE054FE4F108205
S1131C903FBF882311F4222309F19091CA039F5F67
S1131CA09093CA039091B101933499F49FB7F89437
S1131CB08091CA012091C901281739F08F5F809360
S1131CC0CA01863010F01092CA019FBFEE2400E0D2
S1131CD00AC001E00827EE24E39405C0992309F023
S1131CE04EC000E0EE249FB7F894809136019FBF68
S1131CF0882339F08FB7F8949AE0909359028FBFF4
S1131D0032C08FB7F894A090C0011091C2018FBF68
S1131D100E9459028823E1F4AA20D1F41FB7F89451
S1131D2082E08093C0010E945902882339F4E09133
S1131D30CA01F0E0E753FE4F828101C080E0809346
S1131D40C1011FBF83E48093B1011092DB0109C07C
S1131D501150123040F485E48093B10181E0809306
S1131D60DB0111E001C010E0EE2051F08FB7F894D0
S1131D7000933F018FBF84E00E94DE0201C010E0A7
S1131D80809159028A3019F40E94F807C1C41123C2
S1131D9009F4BEC48FB7F89410920E0410920D0487
S1131DA01092AB0191E0909359028FBF0E943E0BB9
S1131DB0882309F4ADC48FB7F89499E0909359023D
S1131DC08FBF0E949C05A4C456985798109258023D
S1131DD010929D01539A549A579A80914B018823EB
S1131DE009F096C487E291E090931404809313045D
S1131DF08FB7F89491E090934B018FBF81E00E94DC
S1131E005C0B8823C9F42FB7F89480914F0190910B
S1131E105001009711F02FBF7BC481E090E09093B4
S1131E20500180934F012FBFDD9A64E170E080E0A0
S1131E3090E00E9460076CC482E00E949A018823AB
S1131E4009F066C481E00E949A0162C483E078C00C
S1131E50539854988FB7F89410924B0134C1109250
S1131E603C0110923B018FB7F89460913F018FBF02
S1131E7080914001811163E08091390190913A0190
S1131E8020914101222309F043C420911C01222303
S1131E9009F03EC42091D3013091D40128173907A9
S1131EA009F036C480E043C03FB7F8948091440100
S1131EB090914501209176013FBF3FB7F894E22FFE
S1131EC0F0E0EE0FFF1FEA5EFE4F91838083809166
S1131ED03701222311F08B7F01C08D7F809337015E
S1131EE0109242013FBF14C48091CC03882309F4AB
S1131EF00FC4C3EDD1E010E001E09091CC03802F3A
S1131F00892359F019821882802F80958923809320
S1131F10CC03812F63E00E948C0A1F5F2296183045
S1131F2009F4F6C3000FE9CF80911C0161E00E941F
S1131F309F0AEEC30E941D0A882309F4E9C388E0BE
S1131F400E94DE02E5C31FB7F8940E94F407C1E0C3
S1131F50D0E0D0935501C0935401109256011092D1
S1131F607701109293011FBF1FB7F8940E94A50632
S1131F70D0938F01C0938E01109299010E94510257
S1131F8080E488BF8AB780628ABF8AB78F7E8ABF9F
S1131F9089B7806489BF1FBF1FB7F89480914F0130
S1131FA0909150018430910519F483E00E94B106A8
S1131FB01FBF1FB7F8940E94D50180E00E9453060A
S1131FC01FBF82E00E9494010E9455046093E501C2
S1131FD07093E6018093E7019093E80180ED97E028
S1131FE0A0E0B0E08093E9019093EA01A093EB01B3
S1131FF0B093EC018091ED018E7F82608093ED01BE
S113200084E19ECF80E00E94940182C38FB7F8944C
S11320108FBF83E00E949A01882351F11FB7F8947F
S113202010925501109254010E94D7010E9455024A
S113203083E00E9453060E94D5011FBF1FB7F89486
S113204010928F0110928E010E94A5060E94D50164
S11320500E9451021FBF1092500110924F010E9422
S11320604F02DD980E944D028AE00E94DE0203C006
S113207082E00E949401C091C601D091C7010E94E0
S11320804F048A858F3309F043C33FC31FB7F894C5
S113209080910A04882309F009C181E080930A042D
S11320A080914F01909150018430910521F481E099
S11320B00E946C0BFBC08DE00E94DE02F7C08FB75C
S11320C0F89410920A048FBF23C38FB7F8949091A9
S11320D051019923C1F78FBF01E0869B00E08091F5
S11320E0B8019091B9019817E1F00817D1F484E090
S11320F090E09093500180934F018FB7F89491E052
S1132100909351018FBF8DE160E070E00E94550310
S11321100E94F8090E94D5010E94B10189E00E9441
S1132120DE020093B9018EE00BCF9FB7F894809143
S11321301D019FBF823009F45DC0833030F48823D1
S113214059F0813009F0E4C23CC0833009F46CC01A
S1132150843009F0DDC28FC00E94B1010FB7F8943A
S113216080914F01909150018230910541F583E0B7
S113217090E09093500180934F018DE168E170E00D
S11321800E94550381E08093B80110925101869B0F
S113219080E08093B9018EE00E94DE0281E00E941B
S11321A0B1068CE16FE772E00E9455030E949A0722
S11321B00E94AA0787E166E57AE20E9455030FBFF1
S11321C0A7C20E94B10186E00E94B1060E949A074C
S11321D00E94AA070E94F8090E94D5010E94B10139
S11321E083E00E94B1060E94D50181E00E9453065B
S11321F08DE0A6CE0E94B1011FB7F8940E94BB01E6
S1132200882311F01FBF0AC01FBF83E50E944A0341
S113221080E00E944A0380E00E944A030E94D501A4
S113222082E00E94530674C29FB7F89480915401CF
S11322309FBF843029F0883031F08230C9F462C203
S11322400E946D0965C20E94B1010E94C4060E94E9
S1132250D5010E9496062FB7F89481E090E0909300
S11322605501809354012FBF83E00E94530950C24B
S11322700E9496064DC20E949B064AC21FB7F8945C
S11322808091560290915702109257021092560272
S11322901092D0031092CF0310925D0110925C0152
S11322A01092D2011092D1010E94420C1FBF30C281
S11322B08FB7F894909196019093200192E09093B7
S11322C053018FBF80912001882309F021C20E940D
S11322D0B3010E94B1018FE033CEE0915A01F09135
S11322E05B01EF01A896E080DF01AE0DB11D8C917A
S11322F0881F8827881F8B838C918F7789831197F8
S11323008C9180A7C0915A01D0915B019FB7F8943A
S1132310809194019FBF882301F12696CE010E94EB
S11323208B014FB7F8942091B6013091B7014FBF9C
S11323308217930761F0CE010E948B0121E030E007
S11323404FEF8F3F940729F020E030E002C021E0F6
S113235030E02115310509F4BBC08E2D8D3008F411
S1132360B7C0C0915A01D0915B01CE0108960E947A
S11323708B017B812FEF2093CD03AFB7F89460914D
S1132380CD03E3E6F1E020E030E0408151814817DD
S1132390590741F44281471721F46093CD03AFBF3D
S11323A093C0622F2F5F3F4F33962430310569F776
S11323B06093CD03AFBF2091CD035FB7F8942F3F57
S11323C021F030915701321721F42091570141E057
S11323D001C040E030E0F901EE0FFF1FE20FF31FF0
S11323E0ED59FE4F918380837283442331F08091B1
S11323F057018F5F8370809357015FBF8BA588233C
S113240009F462C08A858F3309F05EC08E010A5FC9
S11324101F4FC8010E948B014FB7F89420912101EE
S1132420309122014FBF8217930761F0C8010E94C7
S11324308B0121E030E0AFEF8F3F9A0729F020E0D5
S113244030E002C021E030E021153105E9F18B854F
S11324508630D1F5BE2DB131B9F5CE010C969093ED
S11324604D0180934C019FB7F8948BB321E08227F0
S11324708BBB9FBF00914C0110914D01C8010E947C
S1132480C6017C01C80102960E94C60100D000D09A
S113249000D0EDB7FEB7319620E031E0ADB7BEB75E
S11324A012963C932E931197F382E2829583848350
S11324B00E943B1CEDB7FEB736960FB6F894FEBFEC
S11324C00FBEEDBF0E94FA0DD0935B01C0935A0179
S11324D08FB7F894109299018FBF0E94070C18C10E
S11324E080919201882311F5EFB7F89460917101FE
S11324F070917201809173019091740120915D0239
S113250030915E0240915F0250916002620F731F2E
S1132510841F951FEFBF20916E0330916F0340918C
S113252070035091710300E00E9477050E945504E6
S113253064C00E9455042FB7F8941092C8012FBFAD
S11325402091E40121FF24C02091DC013091DD01C0
S11325504091DE015091DF017B018C01E21AF30A04
S1132560040B150B2091E0013091E1014091E2014F
S11325705091E3012E193F09400B510B2F3FFFEF00
S11325803F07FFEF4F07FFE75F0741F4E0E007C0B5
S1132590E0E02FEF3FEF4FEF5FE701C0E1E0F091A4
S11325A0ED01F1FF1FC0E090E501F090E60100911C
S11325B0E7011091E8015B016C01AE18BF08C00A85
S11325C0D10AE090E901F090EA010091EB01109149
S11325D0EC01EA18FB080C091D09E216F3060407CE
S11325E0150724F0EE2309F493C002C0A801970153
S11325F012161306140615061CF00E947F0488C0E8
S113260001E00E94770584C08091A8019091240183
S1132610891709F47DC080932401882309F075C0CB
S1132620C0915801D0915901A090C4018FE38A87C9
S113263082E00E945C0B882309F067C080916902E4
S1132640982F9F5F909369028B83EFB6F89482E092
S11326500E949A01882321F4EFBE0E944F0455C0C2
S11326608E01085D1F4F84E00E949401D093C7013E
S1132670C093C601EFBE8A2D835FDE018D937D0179
S1132680CD010E948B018072907089831A82C701E8
S11326900E948B018164986889839A83F80114826B
S11326A018A61182CE018E9640E050E060E070E8FA
S11326B00E94800151E0509365022091C60130913F
S11326C0C7014FB7F8948091540190915501883017
S11326D0910519F08130910511F04FBF19C082E0C6
S11326E090E0909355018093540150930C043093DF
S11326F0A3012093A20110925E014FBF0E94E80D36
S1132700882331F40E94140403C08FEF80932401C2
S1132710DF91CF911F910F91FF90EF90DF90CF90B9
S1132720BF90AF9008950E9475028F3F21F00E94E0
S1132730140E81E0089580E00895FF920F931F9393
S1132740FFB6F89488E791E06FEF70E046E150E05F
S11327500E94341C8FEF8093C70380930B0481E0A5
S11327608EBD88E080BF83E083BF8CB59DB54AE70A
S113277001C0C9012CB53DB52817390708F44150EB
S11327804423B9F782B792B79817E9F32CB53DB54E
S113279082B792B79817E9F38CB59DB54096821B22
S11327A0930B15E0969587951A95E1F79093C903D5
S11327B08093C80313BE83B78EBD8EB580BF12BE8F
S11327C01DBC1CBC8FEF86BF86B780937C0080B78E
S11327D090E0877090700097D1F7D29AD19AD09AEE
S11327E0DA9AD99AD89A15BA8FEF84BBD498DC9820
S11327F01DBC1CBC87B7846087BF8EB5887F84608E
S11328008EBD109289001092880080917D008460B2
S113281080937D0080918A00887F826080938A0003
S113282080E285BF0E9493138823E1F71FEF109382
S113283097018FEF9FEF909364018093630110924F
S113284065019093670180936601109268019093EB
S11328506A018093690110926B0190936D018093DA
S11328606C0110926E010E94F901809369028091BB
S11328701301909114010196A0E0B0E08093A401AB
S11328809093A501A093A601B093A70180B7886097
S113289080BF8BE083BF86EE81BF87B7826087BF2E
S11328A00E94F30482E993E090935B0180935A01C0
S11328B08E980E94B3018C981093B001109261021B
S11328C01092620210926302109264020E94B30199
S11328D0D69AD59A2FB7F89480912101909122012C
S11328E02FBF9093B7018093B60180912301809309
S11328F09F011092A0018FE180935C028AE1809392
S1132900670281E0809394011092CE038093A10129
S11329101092660202E016E06091C8037091C90348
S113292080E090E0BCE0660F771F881F991FBA957E
S1132930D1F720E031EE40E050E00E94BC1B215072
S1132940304029B9309390000BB9109395001AB810
S1132950209399003093980000939B0010939D005E
S113296010929A0084E490E090936A038093690340
S11329701092C0011092C201109259021092AB0140
S11329801092B1011092CA0310920E0410920D0419
S1132990109207041092DB010E9464021092CA0193
S11329A01092C9010E9493138823E1F7FFBE789423
S11329B081E00E94DE021FB7F89443C087B7887B8A
S11329C0A1F480917D008B7F81F46E990EC09AB141
S11329D080919A00892B807C41F48091740082FD5F
S11329E004C0379B04C021E003C020E001C025E0FF
S11329F087B790E083709070009779F080B790E08B
S1132A00877090700097D1F781B792B7891B8C308B
S1132A1030F082B7853F28F002C0E5E003C0E2E071
S1132A2001C0E3E085B72E1708F4E22FF0E0E85484
S1132A30FD4FE491837C80628E2B85BF78948895CA
S1132A40F8940E9475028F3F09F4B8CF1FBF0E940B
S1132A50140EB1CF1F920F920FB60F920BB60F92B6
S1132A6011242F933F934F935F936F937F938F938F
S1132A709F93AF93BF93EF93FF935F9B3FC06CB162
S1132A802091D9013091DA012115310501F18091AC
S1132A90050490910604280F391FF90160830196FB
S1132AA0909306048093050420910F043091100440
S1132AB08217930718F11092DA011092D9018091CC
S1132AC058028330D9F057981092580217C06E37C5
S1132AD019F481E060E010C0809147016D3721F462
S1132AE08260809347010AC081FF05C08D7F809377
S1132AF0470180E2682780E00E942508FF91EF915A
S1132B00BF91AF919F918F917F916F915F914F9101
S1132B103F912F910F900BBE0F900FBE0F901F90FF
S1132B20189578941F920F920FB60F920BB60F92CE
S1132B301124FF920F931F932F933F934F935F930F
S1132B406F937F938F939F93AF93BF93CF93DF93B1
S1132B50EF93FF9320919B0130919C0180916B0333
S1132B6090916C032817390780F4E091BA01F09131
S1132B70BB01E20FF31F80812F5F3F4F30939C0115
S1132B8020939B010E948B02C3C01092BB01109240
S1132B90BA0110929D0156988091470180FF0AC0A6
S1132BA08E7F8093470180915A02809391010E9405
S1132BB0170BAEC080915902843009F48BC0853064
S1132BC040F4823011F18330A8F5813009F09BC0C4
S1132BD00DC0863009F48CC0863008F482C087307A
S1132BE009F48DC0883009F08EC090C08091B10185
S1132BF00E94490B082F83E08093590280910D04B1
S1132C0090910E046091B1010EC08091CA030E949C
S1132C10490B082F83E08093590280910D04909111
S1132C200E046091CA030E94160890930E048093C8
S1132C300D0467C01FB7F894E091DB01F0E0EE0FDC
S1132C40FF1FEF53FE4F80810E94490B082FF09025
S1132C50DB01CF2DD0E0FE01EE0FFF1FEF53FE4F3F
S1132C6080910D0490910E0460810E941608909347
S1132C700E0480930D048091AB018F5F8093AB01B0
S1132C809F2D913011F520913E01E0913901F09191
S1132C903A01E20FF11D90812F5F20933E013091A4
S1132CA03D01321720F492E09093C20190E0CC0FE2
S1132CB0DD1FFE01E054FE4F2081223031F08F3FB2
S1132CC021F0CF53DE4F988303C084E080935902F0
S1132CD01FBF17C080910D040E94490B082F85E087
S1132CE00BC080910E040E94490B082F86E004C09B
S1132CF00E943E0B082F87E08093590202C088E0AF
S1132D0003C0002329F089E0809359020E949C05A6
S1132D10FF91EF91DF91CF91BF91AF919F918F91EF
S1132D207F916F915F914F913F912F911F910F91DF
S1132D30FF900F900BBE0F900FBE0F901F90189531
S1132D401F920F920FB60F9211248F9380919B00C4
S1132D5087FF02C080919C008F910F900FBE0F904F
S1132D601F90189578941F920F920FB60F9211240A
S1132D700F900FBE0F901F90189578941F920F928A
S1132D800FB60F9211240F900FBE0F901F9018953D
S1132D9078941F920F920FB60F9211240F900FBECA
S1132DA00F901F90189578941F920F920FB60F9260
S1132DB011240F900FBE0F901F90189578941F92B6
S1132DC00F920FB60F9211248F939F9380918800D6
S1132DD0909189009F918F910F900FBE0F901F903B
S1132DE0189578941F920F920FB60F9211242F9377
S1132DF08F939F932FB7F8948091D5019091D6012A
S1132E0001969093D6018093D5012FBF9F918F9106
S1132E102F910F900FBE0F901F9018951F920F9235
S1132E200FB60F920BB60F9211242F933F934F932B
S1132E305F936F937F938F939F93AF93BF93EF931E
S1132E40FF930E94910221B730E02F5F3F4F40E093
S1132E5050E080915F0190916001A0916101B09177
S1132E606201820F931FA41FB51F80935F0190938B
S1132E706001A0936101B093620178940E94F3040D
S1132E80FF91EF91BF91AF919F918F917F916F913E
S1132E905F914F913F912F910F900BBE0F900FBEFA
S1132EA00F901F9018951F920F920FB60F920BB6AA
S1132EB00F9211242F933F934F935F936F937F93BC
S1132EC08F939F93AF93BF93EF93FF930E949102CD
S1132ED0FF91EF91BF91AF919F918F917F916F91EE
S1132EE05F914F913F912F910F900BBE0F900FBEAA
S1132EF00F901F90189578941F920F920FB60F920F
S1132F000BB60F9211241F932F933F934F935F930C
S1132F106F937F938F939F93AF93BF93EF93FF939D
S1132F200E94D70178941FB7F8948091AC019091D6
S1132F30AD01A091AE01B091AF010097A105B1051B
S1132F4009F051C08091540190915501853091054B
S1132F5061F18630910538F48330910559F084305D
S1132F60910561F519C087309105E9F08830910524
S1132F7029F512C0869B0DC084E090E09093550122
S1132F808093540167E070E080E090E00E94600765
S1132F9015C00E94840712C00E94E80D882371F4B2
S1132FA00E946D090BC080E007C00E94C4060E9405
S1132FB0F4070E94960687E00E945C0980914F0105
S1132FC0909150018130910581F482E090E09093DA
S1132FD0500180934F010E944F020E944D0280E0F5
S1132FE00E946C0B02C00E94D2061FBFFF91EF919A
S1132FF0BF91AF919F918F917F916F915F914F910D
S11330003F912F911F910F900BBE0F900FBE0F9009
S11330101F90189578941F920F920FB60F92112457
S11330200F900FBE0F901F90189578941F920F92D7
S11330300FB60F9211240F900FBE0F901F9018958A
S113304078941F920F920FB60F920BB60F92112421
S11330506F927F928F929F92AF92BF92CF92DF92A4
S1133060EF92FF920F931F932F933F934F935F938E
S11330706F937F938F939F93AF93BF93EF93FF933C
S1133080DF93CF930F92CDB7DEB7CCB4DDB480E23B
S113309086BFBFB6F8940E94DB017601E61AF70AF0
S11330A00027F7FC0095102FE60EF71E081F191FC6
S11330B080915401909155018530910529F0863015
S11330C0910509F07FC05CC086E090E090935501C3
S11330D08093540181E0809398011092560180E01E
S11330E00E94D9078091A2019091A3018E96B80104
S11330F0A7010E948001E091A201F091A30185A59E
S1133100882349F1208125503F01620E711CC301BF
S113311029830E949702AB01BC014E195F09600B21
S1133120710BC3010E9480010E94B10180E090E014
S11331302981622FA3010E94BB090E94D501C3010A
S11331400E949702AB01BC014E0D5F1D601F711FF1
S1133150C3010E9480018091A2019091A301019674
S11331600E948B0185FF03C081E0809377010E9458
S113317096060E94D7010E94C202882309F07BC0F0
S1133180109298010E94F4078091A2019091A301EA
S113319001960E948B0185FF0DC087E090E090931B
S11331A055018093540160E071E080E090E00E945A
S11331B0600703C080E00E945C090E94C202882369
S11331C009F459C080915601882379F580919801BA
S11331D0882359F581E08093980180E00E94D90703
S11331E00E94C202A82E8091C603883090F4E09118
S11331F0CB03E80FE770F0E0EE0FFF1FEE0FFF1FA9
S1133200EE58FC4FE082F182028313838F5F809338
S1133210C60381E080935601D092BF01C092BE01E3
S11332200E94C202882311F026C0AA24809198012A
S1133230813009F5109298010E94F407109256010A
S1133240AA20C9F48091BE019091BF01C81AD90A7D
S11332502AE0C216D10478F48091C603882319F0B9
S113326081508093C6038091A2019091A30100979D
S113327011F00E94C806BFBE0F90CF91DF91FF915D
S1133280EF91BF91AF919F918F917F916F915F91DA
S11332904F913F912F911F910F91FF90EF90DF90ED
S11332A0CF90BF90AF909F908F907F906F900F9032
S11332B00BBE0F900FBE0F901F90189578941F921D
S11332C00F920FB60F9211242F938F939F932FB7C2
S11332D0F8948091A9019091AA0101969093AA0172
S11332E08093A9012FBF9F918F912F910F900FBEB3
S11332F00F901F9018951F920F920FB60F921124E2
S11333000F900FBE0F901F9018951F920F920FB63B
S11333100F9211240F900FBE0F901F9018951F92BB
S11333200F920FB60F9211240F900FBE0F901F90A3
S113333018951F920F920FB60F9211240F900FBE83
S11333400F901F9018951F920F920FB60F92112491
S11333500F900FBE0F901F9018951F920F920FB6EB
S11333600F9211240F900FBE0F901F9018951F926B
S11333700F920FB60F920BB60F9211242F933F9317
S11333804F935F936F937F938F939F93AF93BF9369
S1133390EF93FF9380918E0190918F01813091057D
S11333A049F482E090E090938F0180938E010E9413
S11333B0EE0B05C0809195018F5F80939501FF917D
S11333C0EF91BF91AF919F918F917F916F915F9199
S11333D04F913F912F910F900BBE0F900FBE0F9006
S11333E01F9018951F920F920FB60F9211240F90F1
S11333F00FBE0F901F9018951F920F920FB60F9249
S11334000BB60F9211242F933F934F935F936F93B7
S11334107F938F939F93AF93BF93EF93FF932FB1BA
S11334208091560290915702009739F0E091D101B2
S1133430F091D201E80FF91F20838091D10190917E
S1133440D20101969093D2018093D10180E00E9431
S1133450C6022091D1013091D20180915C019091FA
S11334605D012817390718F40E94740317C080916E
S113347056029091570210925702109256021092DF
S1133480D0031092CF0310925D0110925C01109250
S1133490D2011092D1012FB10E94420CFF91EF9101
S11334A0BF91AF919F918F917F916F915F914F9158
S11334B03F912F910F900BBE0F900FBE0F901F9056
S11334C01895ACE2B0E0E7E6FAE10C94FD1B298321
S11334D03A834B835C836D837E838F839887A9862D
S11334E0BA86CB86DC86ED86FE860F87188B6980CC
S11334F07A808B809C8069A27AA28BA29CA2840190
S113350073018FEF9FEFA0E0B0E0E822F9220A23D5
S11335101B2314014424552469847A848B849C8459
S11335206DA27EA28FA298A664015301A822B9229B
S1133530CA22DB22340188249924C601B501A801DA
S113354097010E94DE1B69A77AA78BA79CA7C401D9
S1133550B3010E94DE1B7B018C01C601B501A201EF
S113356091010E94DE1B5B016C01C401B3010E9446
S1133570DE1B9B01AC01EA0CFB1C0C1D1D1D69A488
S11335807AA48BA49CA4C401AA27BB27E80EF91E25
S11335900A1F1B1FEA14FB040C051D0520F4205010
S11335A030404F4F5F4FC801AA27BB27820F931F9C
S11335B0A41FB51F8D8F9E8FAF8FB8A38701FF24E3
S11335C0EE2429A53AA54BA55CA540705070E20EE7
S11335D0F31E041F151FE98EFA8E0B8F1C8FDE2C31
S11335E0AA8CCB8C6C8C8D8B8E8D8E8B8F8D8F8BD0
S11335F088A1888F2D853E854F85588969A17AA138
S11336008BA19CA10E94DE1B7B018C012D813E813C
S11336104F8158856DA17EA18FA198A50E94DE1BC4
S1133620E60EF71E081F191F6D897E898F89988DF4
S11336306E0D7F1D801F911F6D8B7E8B8F8B988FDE
S11336407E892D2D3A2D4C2D562D8F89988DAC9633
S1133650E2E10C94191C0F93DF93CF93CDB7DEB73F
S113366060970FB6F894DEBF0FBECDBF002309F4F8
S113367059C029833A834B835C836D837E838F8314
S11336809887E0E2E01B2D813E814F8158851E160C
S1133690BCF01D861E861F86188A8E2F992787FDEB
S11336A09095909581959F4F04C056954795379571
S11336B027958A95D2F729873A874B875C872AC052
S11336C0CA01B901002E04C0969587957795679530
S11336D00A94D2F76D877E878F87988BDA01C901A8
S11336E004C0880F991FAA1FBB1FEA95D2F729812E
S11336F03A814B815C8104C056954795379527954F
S11337000A95D2F7822B932BA42BB52B89879A8702
S1133710AB87BC8729853A854B855C856D857E851D
S11337208F85988960960FB6F894DEBF0FBECDBF23
S1133730CF91DF910F910895991B79E004C0991FEF
S1133740961708F0961B881F7A95C9F780950895F7
S1133750AA1BBB1B51E107C0AA1FBB1FA617B707B3
S113376010F0A61BB70B881F991F5A95A9F78095CF
S11337709095BC01CD010895A1E21A2EAA1BBB1B92
S1133780FD010DC0AA1FBB1FEE1FFF1FA217B30729
S1133790E407F50720F0A21BB30BE40BF50B661F3F
S11337A0771F881F991F1A9469F760957095809503
S11337B090959B01AC01BD01CF010895629FD0019A
S11337C0739FF001829FE00DF11D649FE00DF11DD8
S11337D0929FF00D839FF00D749FF00D659FF00D87
S11337E09927729FB00DE11DF91F639FB00DE11D74
S11337F0F91FBD01CF01112408952F923F924F92DA
S11338005F926F927F928F929F92AF92BF92CF926C
S1133810DF92EF92FF920F931F93CF93DF93CDB775
S1133820DEB7CA1BDB0B0FB6F894DEBF0FBECDBFED
S113383009942A88398848885F846E847D848C84BE
S11338409B84AA84B984C884DF80EE80FD800C81C7
S11338501B81AA81B981CE0FD11D0FB6F894DEBFAA
S11338600FBECDBFED010895DC0101C06D93415041
S11338705040E0F70895DF93CF93CDB7DEB7FE0154
S11338803596619171918091130490911404AF0164
S11338900E944D1CCF91DF9108952F923F924F9239
S11338A05F926F927F928F929F92AF92BF92CF92CC
S11338B0DF92EF92FF920F931F93DF93CF93CDB7D5
S11338C0DEB72C970FB6F894DEBF0FBECDBF6C01E8
S11338D01B018A01FC0117821682838181FFD1C1F9
S11338E02E010894411C511CF6019381F10193FDB2
S11338F0859193FF81911F01882309F4BEC185320C
S113390039F493FD859193FF81911F01853229F448
S113391090E0B6010E94731EE7CFEE24FF2420E05E
S11339202032B0F48B3269F08C3228F4803251F0BA
S1133930833271F40BC08D3239F0803349F4216045
S11339402CC02260246029C0286027C0206125C0C3
S113395027FD2CC0382F30533A3098F426FF08C086
S11339608E2D880FE82EEE0CEE0CE80EE30E15C03B
S11339708F2D880FF82EFF0CFF0CF80EF30E20622B
S11339800CC08E3221F426FD78C1206406C08C362A
S113399011F4206802C0883649F4F10193FD859141
S11339A093FF81911F01882309F0BACF982F955472
S11339B0933018F09052933028F40C5F1F4FFFE3BC
S11339C0F9830DC0833631F0833771F0833509F004
S11339D060C022C0F801808189830E5F1F4F4201BD
S11339E071E0A72EB12C16C062E0662E712C600E19
S11339F0711EF8018080918026FF03C06E2D70E057
S1133A0002C06FEF7FEFC4012C870E94681E5C0127
S1133A1083012C852F7717C052E0652E712C600E20
S1133A20711EF8018080918026FF03C06E2D70E026
S1133A3002C06FEF7FEFC4012C870E945D1E5C0102
S1133A402C852068830123FD20C008C080E290E01B
S1133A50B6012C870E94731EFA942C858F2D90E05A
S1133A60A816B90698F311C0F40127FD859127FF24
S1133A7081914F0190E0B6012C870E94731E2C8522
S1133A80F110FA940894A108B108A114B10461F7E3
S1133A90F1C0843611F0893649F527FF08C0F801D2
S1133AA060817181828193810C5F1F4F09C0F8018D
S1133AB060817181882777FD8095982F0E5F1F4F55
S1133AC04FE6B42EB22297FF09C090958095709569
S1133AD061957F4F8F4F9F4FF0E8BF2AA2012AE0E4
S1133AE030E00E949F1E782E741845C0853731F44B
S1133AF03FEEB32EB2222AE030E025C099EFB92E72
S1133B00B2228F36C1F0803720F4883509F0B5C071
S1133B100DC0803721F0883709F0AFC002C020E122
S1133B20B22AB4FE0BC084E0B82A08C0B4FE09C0AF
S1133B30E6E0BE2A06C028E030E005C020E130E01F
S1133B4002C020E132E0B7FE08C0F8016081718153
S1133B50828193810C5F1F4F07C0F80160817181DE
S1133B6080E090E00E5F1F4FA2010E949F1E782EFE
S1133B707418FFE7BF22B6FE0BC02EEFB2227E14EC
S1133B8038F4B4FE07C0B2FC05C08FEEB82202C000
S1133B90A72C01C0AE2C8B2D90E0B4FE0DC0FE010D
S1133BA0E70DF11D2081203319F4E9EEBE2209C08E
S1133BB0A394B2FE06C004C086789070009709F002
S1133BC0A3948B2C9924B3FC14C0B0FE0FC0AF1483
S1133BD028F4E72CEF0CEA18AF2C08C0E72C06C039
S1133BE080E290E0B6010E94731EA394AF14C0F368
S1133BF004C0AF1410F4FA1801C0FF2484FE0FC0EF
S1133C0080E390E0B6010E94731E82FE1FC081FE15
S1133C1003C088E590E010C088E790E00DC0C401BF
S1133C2086789070009791F081FC02C080E201C018
S1133C308BE2B7FC8DE290E0B6010E94731E06C0D1
S1133C4080E390E0B6010E94731EEA947E14C0F3F0
S1133C507A94F201E70DF11D808190E0B6010E9493
S1133C60731E7720A9F706C080E290E0B6010E9497
S1133C70731EFA94FF20C1F737CEF60126813781EF
S1133C8002C02FEF3FEFC9012C960FB6F894DEBFA8
S1133C900FBECDBFCF91DF911F910F91FF90EF9099
S1133CA0DF90CF90BF90AF909F908F907F906F9058
S1133CB05F904F903F902F900895FC0105906150C4
S1133CC070400110D8F7809590958E0F9F1F08952E
S1133CD0FC016150704001900110D8F780959095D7
S1133CE08E0F9F1F08950F931F93CF93DF938C0123
S1133CF0EB018B8181FF1BC082FF0DC02E813F81B0
S1133D008C819D812817390764F4E881F981019336
S1133D10F983E88306C0E885F985802F0995009723
S1133D2031F48E819F8101969F838E8302C00FEFB1
S1133D301FEFC801DF91CF911F910F910895FA01F0
S1133D40AA27283051F1203181F1E8946F936E7FD6
S1133D506E5F7F4F8F4F9F4FAF4FB1E03ED0B4E0C7
S1133D603CD0670F781F891F9A1FA11D680F791F08
S1133D708A1F911DA11D6A0F711D811D911DA11D19
S1133D8020D009F468943F912AE0269F1124301929
S1133D90305D3193DEF6CF010895462F4770405DC4
S1133DA04193B3E00FD0C9F7F6CF462F4F70405D73
S1133DB04A3318F0495D31FD4052419302D0A9F7CE
S1133DC0EACFB4E0A6959795879577956795BA95C8
S1133DD0C9F700976105710508959B01AC010A2E8E
S1133DE006945795479537952795BA95C9F7620F65
S1113DF0731F841F951FA01D0895F894FFCF24
S1133DFE41583A20253033642041593A2025303336
S1133E0E640A000100FFEE012202EE0101FFFFFF32
S1133E1EFF010022FFFFFF0000000200000000DF90
S1093E2E0A000000000080
S9030000FC
