:100000000C946E000C94D21A0C94DC1A0C94E61A20
:100010000C94F01A0C94FA1A0C94041B0C940E1BFA
:100020000C94491B0C948D000C948D000C94771942
:100030000C94D2180C9461190C94B51A0C94651890
:100040000C94AA180C94531B0C948D000C948D00E6
:100050000C948D000C94B81B0C948D000C948D00A6
:100060000C946C190C948D000C948D000C948D00E4
:100070000C948D000C948D000C948D000C948D00CC
:100080000C948D000C941E1C0C948D00FF101E11FE
:10009000231182118611CA11E111E6111912C4123D
:1000A000DD12F2129713C0131B1442146F14D515EE
:1000B000E315F815FB15FD151C162B163B163D1602
:1000C0004116451649165A166A168F16A016A3161B
:1000D000B416CA16CD1600081C18141011241FBE21
:1000E000CFEFD0E1DEBFCDBF11E0A0E0B1E0E0ECAA
:1000F000FDE300E00BBF02C007900D92A032B107F4
:10010000D9F712E0A0E2B1E001C01D92AD3CB10709
:10011000E1F70E94F7160C94DE1E0C94000086B9DD
:100120000895DA9A089586B7089580914A028093D7
:100130007400089590914A02882311F0916001C0E3
:100140009E7F90934A02089590914A02882311F06D
:10015000946001C09B7F90934A0208958FB7F894F2
:100160009091740090934A028FBF089589B78F775A
:1001700089BF089590914A02882311F0906401C0CC
:100180009F7B90934A02089590914A02882311F030
:10019000906201C09F7D90934A02089590914A0217
:1001A000882311F0906801C09F7790934A020895C8
:1001B00087B10895362F272FFC0143835283618333
:1001C0007083BA01832F922F0895FC01918180E002
:1001D000208130E0282B392BC90108959FB7F8946E
:1001E000809354029FBF0895282F9FB7F89481E011
:1001F00030915402321380E09FBF08958091060130
:10020000882339F481E090912901923019F080E03F
:10021000089580E00895C0980895B89A08958FB71A
:10022000F894109253028FBF08959FB7F89481E01D
:1002300020915302211180E09FBF0895882311F07F
:100240006E9A08956E980895C09A089587B78F7E24
:1002500087BF08954FB7F8942091D0013091D10114
:100260008CB59DB556B752FF04C02F5F3F4F8CB57C
:100270009DB54FBF40E050E0A90133272227A0E001
:10028000B0E0282B392B4A2B5B2BB901CA0108950A
:100290006F927F928F929F92AF92BF92CF92DF9296
:1002A000EF92FF920F931F93A090AF01B090B00117
:1002B000C090B101D090B2019501A60160E070E05C
:1002C00080E090E0FEE4AF2EE3E8BE2ECC24DD24F7
:1002D000EE24FF2400E010E00E94131D39014A01C2
:1002E00000E20E94DD1D59016A01A40193015695A7
:1002F0004795379527952A0D3B1D4C1D5D1D57FFD2
:1003000005C05F772F5F3F4F4F4F5F4F2093AF0187
:100310003093B0014093B1015093B201C9011F91D4
:100320000F91FF90EF90DF90CF90BF90AF909F9094
:100330008F907F906F900895DE9A0895DE980895CB
:1003400089B78F7B89BF089587B78F7D87BF089551
:100350008091BA028F3F89F0282F30E0F901E459EB
:10036000FE4F90819093BA029F3F11F49093CA027E
:1003700024593E4F9FEFF9019083089583B783BFBF
:1003800000B600FCFDCF0895FC01238130E040E081
:1003900050E0808190E0A0E0B0E0B82FAA27992734
:1003A0008827282B392B4A2B5B2B618170E080E05A
:1003B00090E0CB0177276627262B372B482B592B2C
:1003C000828190E0A0E0B0E0BA2FA92F982F882773
:1003D000282B392B4A2B5B2BB901CA01089581E0E8
:1003E000849B80E00895882311F06F9A08956F9898
:1003F00008959FB7F894E82FF0E0E459FE4F20816C
:100400002F3F49F421E030E04091CA02481729F01B
:1004100020E030E002C021E030E02115310589F410
:100420002091BA022F3F19F48093BA0206C0E091DE
:10043000CA02F0E0E459FE4F80838093CA0280E054
:1004400001C085E09FBF08950F931F931FB7F894D5
:1004500002B70E94930020915201309153014091C4
:1004600054015091550181FF0FC091B782B72F5FA2
:100470003F4F4F4F5F4F290F311D411D511D280F19
:10048000311D411D511D04C0200F311D411D511D45
:100490001FBFB901CA011F910F910895DF92EF921A
:1004A000FF920F931F93D82E7A018B010E94240292
:1004B0004D2D50E09A01E3E0220F331FEA95E1F75A
:1004C000240F351FF901EB52FE4F60837183828345
:1004D0009383E482F58206831783F901E352FE4F8A
:1004E0008081836080838DE00E94F9011F910F91CC
:1004F000FF90EF90DF900895A49AAC9A83E041E1D9
:1005000050E060E070E00E944E0280E00895A59AFD
:10051000AD9A86E044E650E060E070E00E944E0252
:1005200080E008951F939FB7F89420913101222312
:1005300021F521E02093310180935A029FBF8FB7AC
:10054000F894379A8FBF1FB7F89480910D018730C8
:1005500089F480913101813021F48FE00E94F9010A
:1005600009C0823039F480915A0280930D0183E0F2
:10057000809331011FBF80E017C0E82FE695E69514
:10058000E695F0E0EC52FE4F4081877021E030E0CC
:1005900001C0220F8A95EAF7822F842319F4242BB5
:1005A000208301C085E09FBF1F9108958330A1F093
:1005B000843028F4813061F0823060F407C08530E7
:1005C00079F0853058F0863089F40CC080E00BC09B
:1005D00081E009C082E007C083E005C084E003C079
:1005E00085E001C086E00E949202089581E00895AE
:1005F0000F931F930E94B600A39AAB9AA69AAE9847
:10060000AE9A10929A0180E480939B012FB7F894E0
:1006100080914001882309F03DC001E00093400132
:1006200010924D012FBF1FB7F8948091410188238C
:10063000B9F4889889981092710081E480937000D1
:1006400010927200109274000E94AE0081E00E942D
:10065000A40080E00E949A000E949500009341014E
:100660001FBF1FB7F89480911401823089F48091E4
:100670004001813021F48EE10E94F90109C08230ED
:1006800039F480914D018093140183E080934001FF
:100690001FBF21C08091BF028F3F49F481E090E0ED
:1006A00030911301332329F080E090E002C081E013
:1006B00090E0009779F4809112018F3F19F4109225
:1006C000120106C0E0911301F0E0E154FD4F1082E9
:1006D000109213012FBF85E040EB54E060E070E022
:1006E0000E944E0280E01F910F9108950F931F9377
:1006F000CF93DF931FB7F89490913701933009F0AF
:100700004AC090910F01981709F045C08091990156
:10071000882331F482E080930F011092370138C0B2
:100720004091360150E0CA01019661E070E08230EC
:10073000910511F480E090E0A82FE82FE695E6956A
:10074000E695F0E0E756FE4FB081282F2770EB01C9
:1007500002C0CC0FDD1F2A95E2F79E010B2F0C2360
:1007600031F020952B2320838093360106C0841717
:10077000950711F00196DBCFAFEFA09393018FEFB8
:1007800080930F0181E08093370185E10E94F90198
:100790001FBF80E002C01FBF81E0DF91CF911F919A
:1007A0000F9108951F939FB7F8942091370122234A
:1007B00001F521E020933701809393019FBF1FB77C
:1007C000F89480910F01823089F480913701813053
:1007D00021F485E10E94F90109C0823039F4809149
:1007E000930180930F0183E0809337011FBF80E066
:1007F00017C0E82FE695E695E695F0E0E756FE4F40
:100800004081877021E030E001C0220F8A95EAF72D
:10081000822F842319F4242B208301C085E09FBFFD
:100820001F9108950F931F93CF93DF931FB7F894F1
:1008300090913101933009F04BC090910D019817C0
:1008400009F046C08091D401882339F487E0809371
:100850000D0110923101379838C04091300150E0BD
:10086000CA01019661E070E08730910511F480E0E3
:1008700090E0A82FE82FE695E695E695F0E0EC529B
:10088000FE4FB081282F2770EB0102C0CC0FDD1F77
:100890002A95E2F79E010B2F0C2331F020952B2394
:1008A00020838093300106C08417950711F00196CC
:1008B000DBCFAFEFA0935A028FEF80930D0181E061
:1008C000809331018FE00E94F9011FBF80E002C0D8
:1008D0001FBF81E0DF91CF911F910F9108950F937A
:1008E0001F93CF93DF931FB7F894909148019330F3
:1008F00009F04EC090911701981709F049C08091F6
:100900009501882351F482E08093170110924801E9
:1009100081E08093490184E236C04091470150E074
:10092000CA01019661E070E08230910511F480E027
:1009300090E0A82FE82FE695E695E695F0E0EB56D7
:10094000FE4FB081282F2770EB0102C0CC0FDD1FB6
:100950002A95E2F79E010B2F0C2331F020952B23D3
:1009600020838093470106C08417950711F00196F4
:10097000DBCFAFEFA0934B028FEF8093170181E0A5
:100980008093480182E20E94F9011FBF80E002C00B
:100990001FBF81E0DF91CF911F910F9108959FB705
:1009A000F89420910F01281739F480913701833092
:1009B00019F49FBF81E008959FBF80E008950F93D1
:1009C0001F93CF93DF931FB7F89490913301933027
:1009D00009F04EC090910E01981709F049C080911E
:1009E0006A01882351F482E080930E011092330152
:1009F00081E08093340184E136C04091320150E0BF
:100A0000CA01019661E070E08230910511F480E046
:100A100090E0A82FE82FE695E695E695F0E0E659F8
:100A2000FE4FB081282F2770EB0102C0CC0FDD1FD5
:100A30002A95E2F79E010B2F0C2331F020952B23F2
:100A400020838093320106C08417950711F0019628
:100A5000DBCFAFEFA093A9018FEF80930E0181E070
:100A60008093330182E10E94F9011FBF80E002C040
:100A70001FBF81E0DF91CF911F910F910895FF92E9
:100A80000F931F93E091BD02E73030F4F0E0E85E91
:100A9000FE4F008118E002C00FE110E0FFB6F894AD
:100AA000809198018E7F809398010E94D800982FA2
:100AB0009F71829586958695837041F4802F88502A
:100AC000863138F421E030E0091729F020E030E0E9
:100AD00002C021E030E02170220F809198018178DE
:100AE0000F71902F990F990F822B892B809398016A
:100AF00007B9282F2170183021F58091BB02909101
:100B0000BC0231E08638930788F4833C910580F479
:100B10008136910578F48033910570F48831910520
:100B200068F48C30910560F012E00BC017E009C04A
:100B300016E007C015E005C014E003C013E001C0D3
:100B400010E01770822F8295880F807E182B812FDE
:100B5000886D0E948F00FFBE1F910F91FF90089536
:100B600091E09093C6018093BD020E943F050895D5
:100B700080E00E941E01BA9ABB98B99A6C9A80E0F4
:100B80000E94F301709A6B986A98689881E00E94BD
:100B90001E0108951F93182F81E00E941E011FB9A6
:100BA000779BFECF8FB11F910895EF92FF920F9325
:100BB0001F93182F062FE72EFFB6F8940E941501F9
:100BC000882319F0FFBE80E00AC0FFBE812F0E947B
:100BD000CA058E2D0E94CA05802F0E94CA051F914A
:100BE0000F91FF90EF900895CF92DF92EF92FF92D6
:100BF0000F931F93CF93DF934FB7F8940091C402E4
:100C00001091C502E0901402F0901502C091CC0141
:100C1000D091CD0120914E0130914F01CE010A9625
:100C20002817390708F4C9014FBF6C010894C1089F
:100C3000D10813C00115110529F0F801EC0FFD1FB3
:100C4000808101C080E00E94CA05E114F10421F016
:100C5000F701EC0FFD1F80832196CC15DD0550F3C5
:100C600081E00E94F3018FB7F8940115110531F06E
:100C7000F801EC0FFD1F90819FB901C01FB8D09300
:100C8000CD01C093CC018FBF80E0DF91CF911F9148
:100C90000F91FF90EF90DF90CF9008952FB7F894C9
:100CA00050934F0140934E019093C5028093C4022C
:100CB00070931502609314021092CD011092CC0132
:100CC0002FBF4115510521F08FB10E94F405089501
:100CD00089E00E94F90180E008950F931F93CF935C
:100CE000DF93EC01062F1FB7F8940E9415018823AB
:100CF00019F01FBF10E012C01FBF8FE790E0909364
:100D0000C2018093C1018FE70E94CA05182F80E0BD
:100D100090E0BE01402F50E00E944E06812FDF91EF
:100D2000CF911F910F9108950F931F93CF93DF934E
:100D3000C091AB01D091AC011AA5112309F41FE1B8
:100D40000E940B0180919701811739F0612F70E0AB
:100D5000606E706885E10E94D50510939701088147
:100D60001FB7F8940E941501882311F01FBF12C00D
:100D70001FBF8EE390E09093C2018093C1018EE388
:100D80000E94CA05402F4150CE0160E070E050E063
:100D90000E944E06DF91CF911F910F9108958FB75A
:100DA000F894109255028FBF08959FB7F894209140
:100DB0003301222391F421E0209333018093A90190
:100DC0009FBF80913401882321F483E10E94F901BF
:100DD00002C02093350180E00895E82FE695E6955E
:100DE000E695F0E0E659FE4F4081877021E030E063
:100DF00001C0220F8A95EAF7822F842319F4242B4D
:100E0000208301C085E09FBF0895CF92DF92EF92CB
:100E1000FF920F931F931FB7F89401B7C2B60E94B9
:100E200093000C1511F081FF02C01FBF6BC08091B1
:100E3000CB018823D1F10E94240220914F023091EE
:100E400050024091510250915202C0906501D090E1
:100E50006601E0906701F0906801621B730B840BE0
:100E6000950B6C157D058E059F0528F01092CB0122
:100E700086EE61E01EC0D701C601820F931FA41F3A
:100E8000B51F20915201309153014091540150916E
:100E90005501821B930BA40BB50B873E9105A10551
:100EA000B10518F4823020F402C086EE01C082E061
:100EB00060E0782F715000B601FCFDCF92B7791732
:100EC00009F4782F8091520190915301A09154011F
:100ED000B09155019C01AD012F5F3F4F4F4F5F4FC8
:100EE000270F311D411D511D281739074A075B0780
:100EF00010F4782F709571BF1FBF662319F08CE036
:100F00000E94F9011F910F91FF90EF90DF90CF9019
:100F100008950F932093610230936202409363021D
:100F20005093640200939601EFB7F894F1E0F093C8
:100F3000CB0160934F0270935002809351029093C3
:100F400052022093650130936601409367015093EC
:100F50006801EFBF0E9405070F9108958091280155
:100F6000882309F052C0809103018F3F09F04DC0E2
:100F70000E941501882309F448C081E080935C0237
:100F800080916B01882311F010925C0280915C02C9
:100F90008823E9F10E94FE00882311F00E942401B9
:100FA00080912901823049F580910601882329F535
:100FB000209104012F3FE9F08FEF80930601822FEB
:100FC00090E0FC01E854FE4F3081309304013F3F34
:100FD00011F43093050188549E4F3FEFFC0130839C
:100FE0002093A20181E0809329018AE00E94F90107
:100FF00004C02093060110922901809129018823C1
:1010000041F40E941E0180E0089581E0089585E08A
:10101000089580E008951F931FB7F89490910301FD
:10102000981719F01FBF81E033C08FEF8093030141
:10103000E0912801EE2329F080E0F5E02E2F30E04A
:1010400005C00E940F010E94AE071CC06F2F0E94B6
:101050004E1EA901092E02C0559547950A94E2F744
:1010600040FF13C09093030121E030E002C0220F43
:10107000331F9A95E2F720952E232093280188E0CC
:101080000E94F9011FBF80E003C0892F8F5FDECF70
:101090001F91089584E00E940B08089583E00E9448
:1010A0000B0880E008950E940B0180914B01909104
:1010B0004C0161E00E946D06089580E8809369010B
:1010C0001092A6011092BE021092B90210929F01D6
:1010D00008950F931F93082F1FB7F8940E941501CE
:1010E000882319F01FBF80E004C01FBF802F0E941B
:1010F000CA051F910F91089589E00E94690808951B
:10110000FC0115A68E9640E050E060E070E80E9479
:10111000DA000895EF92FF920F931F930E942A0125
:101120007B018C012091B9013091BA014091BB0142
:101130005091BC018091B4019091B501A091B6018C
:10114000B091B701820F931FA41FB51FE216F306DB
:101150000407150730F082179307A407B50758F066
:1011600005C082179307A407B50790F5E816F9069E
:101170000A071B0768F59C01AD012E193F09400BBA
:10118000510B213060E8360760E0460760E0560703
:1011900010F1D801C70180509048AF4FBF4F8093E6
:1011A000B9019093BA01A093BB01B093BC01205048
:1011B0003048404050402093B4013093B5014093F3
:1011C000B6015093B70120E030E840E050E013C092
:1011D00020E030E0A9018093B9019093BA01A09377
:1011E000BB01B093BC011092B4011092B5011092F2
:1011F000B6011092B7018CB59DB50396AC014E199E
:101200005F094217530718F4C9018E0D9F1D0097FF
:1012100011F481E090E001979BBD8ABD80E186BF1B
:1012200087B7806187BF1F910F91FF90EF9008955E
:10123000DF92EF92FF920F931F937B018C010E942C
:101240002A01DFB6F8946093B9017093BA018093D4
:10125000BB019093BC01E092B401F092B501009300
:10126000B6011093B7010E948A08DFBE1F910F914B
:10127000FF90EF90DF9008951F931FB7F8940E949E
:10128000480166E470E00E945A1E0B969093C802D3
:101290008093C702BC0180E090E00E9418091FBF44
:1012A0001F9108958FB7F89460915B028FBF85E01E
:1012B000689FB0011124625D7E4F706488E10E94D6
:1012C000D50508951F931FB7F89480919E01882338
:1012D00031F061E070E08091C302882311F460E096
:1012E00070E0762F6627770F770F770F8091AA012E
:1012F000882331F081E090E020915902222311F4FB
:1013000080E090E0626E7262F4E0880F991FFA95B7
:10131000E1F7682B792B81E10E94D5051FBF1F9152
:101320000895DF93CF930F92CDB7DEB789830E94E4
:10133000A40190E296BF8981882319F08EB580645C
:1013400002C08EB58F7B8EBD87B7806287BF80E07D
:101350000F90CF91DF91089581E00E949109089547
:10136000882361F4E0912201F0912301118210821F
:10137000E0912201F09123011382128208959FB718
:10138000F894809324019FBF84E00E94F90108959E
:101390001F93182F21E030E030932B0120932A0176
:1013A00010926B010E94AE07812F0E94BF091F910E
:1013B00008950F931F931FB7F89480912A0190917D
:1013C0002B018830910589F40E947C080E944E0808
:1013D0000E94240181E090E090932B0180932A01E8
:1013E00083E00E94BF091FBF2FC00E940B018091A4
:1013F000CB02882311F085E001C084E00E946908D7
:1014000083FD05C080E00E94690883FD04C001E0FF
:1014100083E090E003C000E085E090E090932B0132
:1014200080932A010E9424011FBF002339F01092EB
:1014300050010E944E080E943C0906C060E471E021
:1014400080E090E00E9418091F910F910895CF92BB
:10145000DF92EF92FF920F931F93DF93CF930F9240
:10146000CDB7DEB76C01142FF52E0FB7F894698352
:101470000E9415016981882319F00FBF00E019C08F
:101480000FBFC60ED11C8C2D80680E94CA05082F84
:10149000C60196958795807C0E94CA05412F5F2DD5
:1014A0006A0114E0F60181916F010E94CA05115092
:1014B000C9F7802F0F90CF91DF911F910F91FF906F
:1014C000EF90DF90CF900895DF93CF9300D000D0BE
:1014D000CDB7DEB78FB7F8942091A7019091A801FE
:1014E000AE014F5F5F4F2983FA0191832091BD01C7
:1014F0009091BE012B839C838FBF88E691E060E0D2
:101500000E94270A0F900F900F900F90CF91DF91BC
:10151000089580914A02806180934A0208951F9342
:10152000182F0E94AE0080E00E949A000E94890A53
:1015300081E00E94CE000E9495008091400183309E
:1015400009F03FC0809114018117D9F52091120153
:101550002F3FE1F0822F90E0FC01E154FD4F3081FC
:10156000309312013F3F11F43093130181549D4F8A
:101570003FEFFC01308320934D013093140181E053
:10158000809340018EE10E94F9011DC082E08093AA
:10159000140110924001809141018130A1F40E9418
:1015A000AE0080E00E94A40080E00E949A0080E0EB
:1015B0000E94CE000E94950090989198109241014F
:1015C00002C081E001C080E01F9108958091150163
:1015D000882319F0813041F404C080E00E948F0A12
:1015E000089581E00E948F0A08951F939FB7F89491
:1015F00020911501281719F09FBF81E03EC09FBFC1
:101600008FB7F89490914101913081F592E09093D9
:1016100041018FBF8FB7F8947093AE016093AD0115
:101620005093A1014093A0019093510193E09093B6
:10163000CC0210925F02109242018FBF0E94AE0056
:101640001FB7F89481E00E94CE0081E00E94BA00AA
:1016500081E00E949A0081E00E94C40085E08093AE
:1016600041010E9495001FBF80E007C0992319F433
:101670008FBF84E002C08FBF85E01F9108959FB7A0
:10168000F894E82FF0E0ED5AFD4F8081882321F493
:1016900081E0808380E001C081E09FBF08950F93C7
:1016A0001F93182F0FB7F89480E00E943F0B8823F8
:1016B000E1F5109303010E94FE00882311F088E0F9
:1016C00010C080912901882311F40E94B8058091EF
:1016D0002901882349F481E0809329011092A20115
:1016E0008AE00E94F9012DC08091B8018F3F49F432
:1016F00081E090E020910501222329F080E090E034
:1017000002C081E090E00097E1F4809104018F3FF6
:1017100019F41092040106C0E0910501F0E0E854CC
:10172000FE4F1082109205010CC021E030E002C093
:10173000220F331F1A95E2F780912801822B8093A4
:1017400028010FBF80E01F910F9108950F931F9301
:10175000082F1FB7F89480E00E943F0B882319F0F0
:101760001FBF85E01BC00E94FE00882379F4809192
:101770002901882379F482E08093290110920601DF
:101780000E94B8050E940D010E940B010093030105
:1017900080E003C00E940F0181E01FBF1F910F91E5
:1017A000089582E090E0909392018093910181E00E
:1017B0008093A60180910301843029F084E00E9487
:1017C000A60B882319F40E945308089584E00E9410
:1017D0004F0B08951F931FB7F8948091910190913A
:1017E00092010097D1F01092A60180919F01882369
:1017F00011F0B79904C00E9908C0882319F08150E0
:1018000080939F010E94D10B0AC081E090E09093E9
:1018100092018093910110929F010E944A081FBF7C
:101820001F9108950E945D080E9424010E940B01EF
:1018300088E00E94690888E00E9469080E942401EB
:101840000E944A080E94EA0B0895EF92FF920F93BC
:101850001F93CF93DF938C018091C10186FF51C10B
:101860008F7B8F3309F090C1C0914B01D0914C0117
:10187000488140939401809191019091920185302B
:10188000910509F444C08630910509F492C0823074
:10189000910509F02FC185E090E09093920180932B
:1018A000910150916901242F30E0852F90E0281795
:1018B000390754F5B79907C00E9905C0842F809554
:1018C000850F809369014A32F8F44423B1F0BE01D8
:1018D0006F5F7F4F483028F080E090E047E050E0B5
:1018E00009C086E090E0909392018093910180E09E
:1018F00090E050E00E944E0647C11092A6010E945F
:1019000024010E944A08F3C00E94120C3DC186E0E7
:1019100090E090939201809391018091AA01882395
:1019200009F440C0809159028823E1F58E010F5FD0
:101930001F4FC8010E94E50085FF34C036E0E32E4A
:10194000F12CEC0EFD1EC7010E94E5004FB7F89484
:101950002091BD013091BE014FBF8217930739F02E
:10196000C7010E94E5002FEF8F3F9207D9F4C8010D
:101970000E94E500877090708130910599F40E9473
:1019800024010E940B018AE00E9469080E94240140
:101990000E940B01609194016750CE0108960E944D
:1019A0006D06F2C0BE01685F7F4F409194014750C1
:1019B0009ECF0E94240180919F01882311F40E94F0
:1019C0004A0880919F01882311F0B7990AC00E9BA5
:1019D00008C08091B902882321F0909194019B3036
:1019E00038F480914B0190914C010E9480082FC0E7
:1019F0008130A1F480914B0190914C01E091BE02A5
:101A0000F0E0EE0FFF1FEE0FFF1FEB59FD4F40817F
:101A10005181628173818E960E94DA008091BE02AC
:101A200090E00196877090708093BE028091B90219
:101A300081508093B902882351F080914B0190919D
:101A40004C010E9480081092BE021092B90280914F
:101A50009401FE01E80FF11D808187FF48C0011548
:101A6000110509F444C0CE0101960E94E50087707B
:101A700030914B0120914C01823099F5E091AB01FE
:101A8000F091AC01309799F180912A0190912B014E
:101A90008730910561F5832FEC017E01F22EE7017D
:101AA00093818B81981719F50E942601A091AB01B3
:101AB000B091AC019D01285D3F4F888191E0F90113
:101AC0009483C80FD11DCE010197FC0180819896A7
:101AD0008C9388818F77F901818380E00E94C80907
:101AE00006C0813021F48BE00E94F9014DC00E94B4
:101AF000EA0B4AC01092A6010E9424010E944A08E3
:101B000043C08E3309F040C00E94240180912A0115
:101B100090912B018830910591F40E940B010E9455
:101B20007C080E9424010E944E0881E090E090937E
:101B30002B0180932A0183E00E94BF0925C0809178
:101B4000CB02882349F484E090E090932B018093AA
:101B50002A010E94D90918C00E944E0883E090E033
:101B600090932B0180932A010E94480166E371E063
:101B70000E945A1E0B969093630180936201BC01F0
:101B800080E090E00E941809DF91CF911F910F91A2
:101B9000FF90EF9008951F9383E00E94A60B182FEB
:101BA000882319F083E00E944F0B812F1F91089525
:101BB000EF92FF920F931F93CF93DF93EC01162FB9
:101BC00082E00E943F0B882309F06AC080915D0289
:101BD000982F9F5F90935D028B830FB7F89482E0FC
:101BE0000E94F400882329F40FBF0E94CF0681E0F1
:101BF0005AC048E2E42EF12CEC0EFD1E84E00E9457
:101C0000EE00D093CA01C093C9010FBF812F835F3B
:101C1000FE0181938F01CF010E94E50080729070D8
:101C200089831A82C8010E94E500816498688983CB
:101C30009A83F701148218A61182CE018E9640E095
:101C400050E060E070E80E94DA0051E050935702E3
:101C50002091C9013091CA014FB7F89480912A01AF
:101C600090912B018830910519F08130910511F088
:101C70004FBF18C082E090E090932B0180932A011F
:101C80005093CB023093AC012093AB0110925001E2
:101C90004FBF0E94CB0D882329F40E94940602C0F6
:101CA00085E001C080E0DF91CF911F910F91FF90FF
:101CB000EF900895952F2D3108F03EC0E42FF52FB9
:101CC0008387668377835FB7F8943091A70180910B
:101CD000A8015FBF348385835FB7F8943091070113
:101CE000809108015FBF3087818780910A01882336
:101CF00059F010920A018FE38287842F622F0E948D
:101D0000D80D882389F408952093C7011092C80143
:101D100040932E0190932F018EE00E94F901809153
:101D20000A01882359F004C09FEF90930A01089597
:101D30001092B30180E0089582E0089589E008954B
:101D40001F93CF93DF93182FE82FF0E0EE0FFF1FC4
:101D5000E253FE4F1182108210920201C091CE0117
:101D6000D091CF01209721F08091C10280FF03C064
:101D700081E08093020180910201882381F4CE01E9
:101D800006960E94E500BC0128812D508B85AE018E
:101D90000E945A0E882319F081E00E94F901812FD8
:101DA0000E94B009DF91CF911F9108952091020107
:101DB000222351F42091CE013091CF012817390709
:101DC00019F480E00E94A00E08956F927F928F9286
:101DD0009F92AF92BF92CF92DF92EF92FF920F93BA
:101DE0001F93CF93DF933B014C01C5EDD1E060E041
:101DF00070E0162FFB01B3E0EE0FFF1FBA95E1F77D
:101E0000E60FF71FA5EDAA2EA1E0BA2EAE0EBF1E5B
:101E1000D50118960C91189701FFB3C1888199815B
:101E2000AA81BB81CC80DD80EE80FF80A40193017C
:101E3000281B390B4A0B5B0B2C153D054E055F0526
:101E400008F49FC100FF06C0E352FE4F80818D7FE2
:101E5000808309C08C0D9D1DAE1DBF1DF5018083C3
:101E60009183A283B383133009F487C0143030F414
:101E7000113071F0123009F08BC17DC0153009F4BA
:101E80001BC1153008F4AAC0163009F081C146C143
:101E90008091200190912101019661E570E00E94FE
:101EA0006E1E9093210180932001C2E2D2E0D09374
:101EB0002301C093220180E00E94D50681E00E94A8
:101EC000D506E0912201F0912301818190E03081DB
:101ED00020E0822B932B009709F45AC1838190E074
:101EE000328120E0822B932B009709F451C12C976B
:101EF000CE0106962FEF20931C02DC0111962C9345
:101F0000119726E0209321022091CE013091CF013C
:101F10002115310509F03CC1D093CF01C093CE010A
:101F200021E12093160220910201222309F442C1EB
:101F30000E94E500BC011092020186E0AE0124E09F
:101F40000E945A0E882309F435C1109302011092A1
:101F5000CF011092CE011CC1DA988091200190919E
:101F6000210160E570E00E946E1E009709F010C12B
:101F70000E9491000DC1AA980BC12FB7F8948091CF
:101F80003301882359F090910E01923051F4382F8B
:101F9000315081E090E0323030F003C081E090E0D9
:101FA00002C080E090E02FBF882309F4F1C01FB782
:101FB000F89480910E01823079F480913301813060
:101FC00011F482E1D0C0823039F48091A90180936C
:101FD0000E0183E0809333011FBFDAC080E00E94CE
:101FE000CF04882389F12FB7F89480913901882391
:101FF00059F090911001913051F4382F315081E017
:1020000090E0323030F003C081E090E002C080E028
:1020100090E02FBF8823C1F01FB7F8948091100182
:10202000813089F480913901813021F486E10E9468
:10203000F90109C0823039F48091D30180931001F5
:1020400083E0809339011FBF81E00E94CF04882381
:1020500009F49EC02FB7F89480913B01882359F072
:1020600090911101913051F4382F315081E090E07E
:10207000323030F003C081E090E002C080E090E0B8
:102080002FBF882309F484C01FB7F89480911101F1
:10209000813009F0A1CF80913B01813011F487E1BB
:1020A00062C0823009F098CF809164018093110161
:1020B00083E080933B0190CF2FB7F8948091440147
:1020C000882359F090911601913051F4382F3150F6
:1020D00081E090E0323030F003C081E090E002C057
:1020E00080E090E02FBF882309F452C01FB7F89416
:1020F00080911601813009F06FCF809144018130C9
:1021000011F48FE130C0823009F066CF809158021F
:102110008093160183E0809344015ECF2FB7F8943B
:1021200080914801882359F090911701923051F421
:10213000382F315081E090E0323030F003C081E040
:1021400090E002C080E090E02FBF882309F11FB724
:10215000F89480911701823009F03ECF80914801B8
:10216000813021F482E20E94F90136CF823009F0F9
:1021700033CF80914B028093170183E08093480115
:102180002BCF6F5F7F4F29966730710509F031CEF5
:102190008DE00E94F901DF91CF911F910F91FF9087
:1021A000EF90DF90CF90BF90AF909F908F907F90F7
:1021B0006F900895809120019091210166E470E074
:1021C0000E946E1E009709F4C7CEC7CE9F92AF92B1
:1021D000BF92CF92DF92EF92FF920F931F93CF9314
:1021E000DF93E82FF0E0E532F10508F0E5C5EA5BA2
:1021F000FF4FEE0FFF1F0590F491E02D09948091A1
:10220000C102882309F4D8C5CEECD1E000E011E08A
:102210009091C102812F892351F019821882812F58
:10222000809589238093C102802F0E94B0090F5F9F
:102230002296083009F4C0C5110FEACF809102013F
:102240000E94A00EB9C51FB7F8940E94AC09C1E066
:10225000D0E0D0932B01C0932A0110922C01109250
:102260006B01109297011FBF1FB7F8940E945D0881
:10227000D0939201C09391011092A6010E94A001F7
:1022800080E488BF8AB780628ABF8AB78F7E8ABFA0
:1022900089B7806489BF1FBF1FB7F894809125015B
:1022A000909126018430910519F483E00E94690819
:1022B0001FBF1FB7F8940E94240180E00E940B0802
:1022C0001FBF82E00E94EE000E9424026093DE01A4
:1022D0007093DF018093E0019093E1018AE090E048
:1022E000A0E0B0E08093E2019093E301A093E401C9
:1022F000B093E5018091E6018E7F82608093E601D4
:102300008DE094C080E00E94EE0056C58FB7F8942F
:102310008FBF83E00E94F400882351F11FB7F89427
:1023200010922B0110922A010E9426010E94A40102
:1023300083E00E940B080E9424011FBF1FB7F8947E
:1023400010929201109291010E945D080E94240156
:102350000E94A0011FBF10922601109225010E9429
:102360009E01DD980E949C0183E00E94F90103C058
:1023700082E00E94EE00C091C901D091CA010E9482
:10238000CF068A858F3309F017C58FEF80930A0136
:10239000CE0171C21FB7F8948091C902882309F059
:1023A00092C081E08093C90280912501909126011D
:1023B0008430910521F481E00E944F0B84C086E0B7
:1023C000EBC38FB7F8941092C902F5C48FB7F89495
:1023D00090912701992309F0EEC48FBF11E0869BED
:1023E00010E08091BF019091C0019817E1F018179B
:1023F000D1F484E090E090932601809325018FB77B
:10240000F89491E0909327018FBF8DE160E070E038
:102410000E94D5050E94640A0E9424010E940B01BB
:1024200082E00E94F9011093C00187E00E94F90147
:10243000C3C49FB7F894809103019FBF823009F411
:102440005DC0833030F4882359F0813009F0B4C482
:102450003CC0833009F46CC0843009F0ADC491C035
:102460000E940B011FB7F8948091250190912601DD
:102470008230910541F583E090E0909326018093AE
:1024800025018DE168E170E00E94D50581E080932F
:10249000BF0110922701869B80E08093C00187E0F6
:1024A0000E94F90181E00E9469088CE16FE772E007
:1024B0000E94D5050E9452090E94620987E166E5E3
:1024C0007AE20E94D5051FBF77C40E940B0186E007
:1024D0000E9469080E9452090E9462090E94640ACF
:1024E0000E9424010E940B0183E00E9469080E945F
:1024F000240181E00E940B0886E098CF0E940B0126
:102500001FB7F8940E941501882311F01FBF0AC05D
:102510001FBF83E50E94CA0580E00E94CA0580E0D3
:102520000E94CA050E94240182E00E940B0844C454
:102530009FB7F89480912A019FBF843039F088308A
:1025400041F08230D9F40E94940636C40E94D90921
:1025500033C40E940B010E947C080E9424010E9447
:102560004E082FB7F89481E090E090932B01809370
:102570002A012FBF83E00E94BF091EC40E944E089B
:102580001BC40E94530818C41FB7F894809114020A
:102590009091150210921502109214021092C50229
:1025A0001092C40210924F0110924E011092CD0170
:1025B0001092CC010E94250C86CF8FB7F894909191
:1025C000A2019093060192E0909329018FBF809120
:1025D0000601882309F0F0C30E940D010E940B013F
:1025E00088E024CFE0914B01F0914C01EF01A896D7
:1025F0001081DF01A10FB11D8C91881F8827881FD2
:102600008B838C918F77898311978C9180A7C09150
:102610004B01D0914C019FB7F89480919E019FBFD0
:10262000882301F12696CE010E94E5004FB7F89469
:102630002091BD013091BE014FBF8217930761F019
:10264000CE010E94E50021E030E04FEF8F3F94077C
:1026500029F020E030E002C021E030E02115310512
:1026600009F45DC01D3008F45AC0C0914B01D091EF
:102670004C01CE0108960E94E5007B812FEF20934C
:10268000C202AFB7F8946091C202E6E5F1E020E043
:1026900030E0408151814817590741F44281471782
:1026A00021F46093C202AFBF36C0622F2F5F3F4F4D
:1026B00033962430310569F76093C202AFBF209191
:1026C000C2025FB7F8942F3F21F030912D013217ED
:1026D00021F420912D0141E001C040E030E0F901FA
:1026E000EE0FFF1FE20FF31FEA5AFE4F9183808324
:1026F0007283442331F080912D018F5F837080932A
:102700002D015FBF8BA5882331F08A858F3319F4A3
:102710008FB7F8948FBFD0934C01C0934B018FB704
:10272000F8941092A6018FBF0E94EA0B45C38091D6
:102730009601882311F5EFB7F894609165017091C7
:102740006601809167019091680120914F0230915C
:1027500050024091510250915202620F731F841F28
:10276000951FEFBF20916102309162024091630298
:102770005091640200E00E9489070E94240250C028
:102780000E9424029B01AC018FB7F8941092CB01F8
:102790008FBFE5EDF1E060E070E099249FEFE92E56
:1027A0009FEFF92E9FEF092F9FE7192FDB0183E0A1
:1027B000AA0FBB1F8A95E1F7A60FB71FAB52BE4FFA
:1027C00018968C91189781FF1BC080819181A281FE
:1027D000B38159016A01A81AB90ACA0ADB0A8481BD
:1027E0009581A681B7818A199B09AC09BD098E150F
:1027F0009F05A007B10724F47C018D0199249394CF
:102800006F5F7F4F39966730710581F6992009F423
:10281000D3C21E141F04100611062CF0CA01B90100
:102820000E94E50EC9C2CA01B901A801970101E0E1
:102830000E948907C1C28091B30190910A01891752
:1028400009F4BAC280930A018823C1F480912E0151
:1028500090912F016091C7012FE3EC012A870E941C
:10286000D80D882309F4A8C28FEF80930A018091C4
:102870002E0190912F010E94D60E9EC28FEF809361
:102880000A019AC28FB7F89490915A0290930D0161
:1028900093E0909331018FBF80910D018330B9F0A7
:1028A000843028F4813069F0823078F408C08530B3
:1028B00091F0853070F0863009F07EC20EC080E065
:1028C00001C081E00E94B00577C282E0FBCF83E0C7
:1028D000F9CF84E0F7CF85E0F5CF86E0F3CF109213
:1028E000C6018091BD0200914C0210914D028330CF
:1028F000D1F0843028F4813071F0823080F407C048
:102900008530C9F0853098F08630E9F418C080E051
:102910000E94120451C281E00E94120428C082E089
:102920000E9412042EC083E00E94120434C084E08E
:102930000E941204E2C085E00E94120430C186E0C9
:102940000E9412042EC1833031F1843030F4813082
:1029500071F0823009F030C214C0853009F41FC113
:10296000853008F4CAC0863009F026C21AC180E05A
:102970000E94DF04E0912201F09123010183108382
:102980001BC281E00E94DF04E0912201F09123014B
:102990000383128311C280E00E94CF04882309F4CC
:1029A00054C080915E021FB7F89490913901933022
:1029B00009F04AC090911001981709F045C0809124
:1029C000D201882349F481E08093100110923901EB
:1029D00080933C0189E136C04091380150E0CA0142
:1029E000019661E070E08130910511F480E090E0A3
:1029F000A82FE82FE695E695E695F0E0EE52FE4F1B
:102A0000B081282F2770EB0102C0CC0FDD1F2A9563
:102A1000E2F79E010B2F0C2331F020952B2320830E
:102A20008093380106C08417950711F00196DBCF1B
:102A3000AFEFA093D3018FEF8093100181E08093DB
:102A4000390186E10E94F9011FBF81E00E94CF0495
:102A5000882309F4B1C18091C5011FB7F894909102
:102A60003B01933009F02FCD90911101981709F097
:102A70002ACD80916002882349F481E0809311017E
:102A800010923B0180933E018BE186C040913A0158
:102A900050E0CA01019661E070E08130910511F4C7
:102AA00080E090E0A82FE82FE695E695E695F0E027
:102AB000E05AFD4FB081282F2770EB0102C0CC0FE8
:102AC000DD1F2A95E2F79E010B2F0C2331F0209594
:102AD0002B23208380933A0106C08417950711F0B9
:102AE0000196DBCFAFEFA09364018FEF80931101CC
:102AF00081E080933B0187E14FC01FB7F89480913C
:102B00004401833009F0DFCC80911601882309F05D
:102B1000DACC8091C602882349F481E080931601C3
:102B2000109244018093450181E236C040914301F7
:102B300050E0CA01019661E070E08130910511F426
:102B400080E090E0A82FE82FE695E695E695F0E086
:102B5000EA53FD4FB081282F2770EB0102C0CC0F44
:102B6000DD1F2A95E2F79E010B2F0C2331F02095F3
:102B70002B2320838093430106C08417950711F00F
:102B80000196DBCFAFEFA09358028FEF8093160131
:102B900081E0809344018FE10E94F90194CC80E0B0
:102BA00001C081E00E946F0407C1AC98809135019B
:102BB000813011F40E947C028FB7F8941092350195
:102BC00010923401F8C08FB7F8949091A9019093B6
:102BD0000E0193E0909333018FBF80910E01882303
:102BE00011F481E0D4C0813009F0E6C082E0CFC0AA
:102BF0000E947C02E1C081E119CC8FB7F8949091DA
:102C0000930190930F0193E0909337018FBF8091D0
:102C10000F01882321F0813009F0CEC003C0159A3E
:102C20001D9A02C0169A1E9A84E04AE050E060E0C5
:102C300070E00E944E02C0C08FB7F8949091D3010B
:102C40009093100193E0909339018FBF8091100110
:102C500080935E020EC08FB7F894909164019093B8
:102C6000110193E090933B018FBF809111018093FC
:102C7000C50183E08CC080E005C01D9815988CE1EB
:102C8000D5CB81E00E94D20397C01E9816988DE1A3
:102C9000CDCB80E00E94760380913D01813019F414
:102CA00080E00E94D2038FB7F89410923D011092F9
:102CB0003C0181C081E00E94760380913F01813018
:102CC00011F40E94D2038FB7F89410923F01109232
:102CD0003E0171C08FB7F89490914D01909314010B
:102CE00093E0909340018FBF809114019FB7F894B7
:102CF000809315019FBF882321F0813009F05CC0CB
:102D000006C080E06AE570E04AE951E005C081E074
:102D100068E570E04CE951E00E94F50A4DC08FB7BC
:102D2000F894909158029093160193E09093440187
:102D30008FBF80911601882309F03EC084E027C030
:102D40000E94F80239C00E94B600AB98A398809107
:102D50004601813011F40E94F8028FB7F894109266
:102D600046011092450127C08FB7F89490914B020D
:102D70009093170193E0909348018FBF80911701C2
:102D8000882311F485E003C08130B1F486E00E940D
:102D9000D60212C00E9487020FC0AD98A5988091FC
:102DA0004A01813011F40E9487028FB7F894109283
:102DB0004A01109249018FBFDF91CF911F910F916E
:102DC000FF90EF90DF90CF90BF90AF909F900895CD
:102DD0000E94A8018F3F21F00E94E61081E0089533
:102DE00080E008958FB7F89408958FBF08950F93EA
:102DF0001F931FB7F8948CE691E06FEF70E045E207
:102E000050E00E94D71E8FEF8093BA028093CA02CF
:102E100081E08EBD88E080BF83E083BF8CB59DB527
:102E20004AE701C0C9012CB53DB52817390708F498
:102E300041504423B9F782B792B79817E9F32CB5FC
:102E40003DB582B792B79817E9F38CB59DB540961A
:102E5000821B930B75E0969587957A95E1F7909391
:102E6000BC028093BB0213BE83B78EBD8EB580BFFC
:102E700012BE1DBC1CBC8FEF86BF86B780937C0042
:102E800080B790E0877090700097D1F7D29AD19A6E
:102E9000D09A0E949100D99AD89A15BA8FEF84BB24
:102EA000D498DC9880E00E948F001DBC1CBC87B7C2
:102EB000846087BF8EB5887F84608EBD80E285BFC9
:102EC0000E94E8168823E1F7109295011092C6023D
:102ED0008FEF9FEF9093C0028093BF021092600229
:102EE0001092D2011092990110926A011092D401AD
:102EF0000FEF0093A3019093570180935601109216
:102F0000580190935A018093590110925B0190935C
:102F10005D0180935C0110925E019093600180934B
:102F20005F01109261010E94480180935D028091CF
:102F30000001909101010196A0E0B0E08093AF0103
:102F40009093B001A093B101B093B20180B78860B3
:102F500080BF8BE083BF86EE81BF87B7826087BF6B
:102F60000E94050785E892E090934C0180934B0105
:102F70008E980E940D018C980093B8011092530214
:102F80001092540210925502109256020E940D01A6
:102F9000D69AD59A2FB7F89480910701909108019D
:102FA0002FBF9093BE018093BD0180910901809352
:102FB000A7011092A8018FE180934E028AE18093CD
:102FC0005B0281E080939E011092C3028093AA016C
:102FD000109259020E94E8168823E1F71FBF7894E7
:102FE00081E00E943F0B8823C9F42FB7F8948091A9
:102FF000250190912601009711F02FBF17C081E0A5
:1030000090E090932601809325012FBFDD9A64E123
:1030100070E080E090E00E94180908C082E00E9401
:10302000F400882319F481E00E94F4001FB7F8949B
:1030300043C087B7887BA1F480917D008B7F81F4AA
:103040006E990EC09AB180919A00892B807C41F4D0
:103050008091740082FD04C0379B04C021E003C04E
:1030600020E001C025E087B790E083709070009762
:1030700079F080B790E0877090700097D1F781B7B2
:1030800092B7891B8C3030F082B7853F28F002C0A0
:10309000E5E003C0E2E001C0E3E085B72E1708F4E5
:1030A000E22FF0E0EA52FF4FE491837C80628E2BA6
:1030B00085BF78948895F8940E94A8018F3F09F401
:1030C000B8CF1FBF0E94E610B1CF1F920F920FB66C
:1030D0000F920BB60F9211242F933F934F935F9350
:1030E0006F937F938F939F93AF93BF93EF93FF93D0
:1030F0000E94BE0121B730E02F5F3F4F40E050E01B
:103100008091520190915301A0915401B0915501C9
:10311000820F931FA41FB51F8093520190935301F8
:10312000A0935401B093550178940E940507FF9134
:10313000EF91BF91AF919F918F917F916F915F912F
:103140004F913F912F910F900BBE0F900FBE0F909C
:103150001F9018951F920F920FB60F920BB60F92F9
:1031600011242F933F934F935F936F937F938F938C
:103170009F93AF93BF93EF93FF930E94BE01FF9184
:10318000EF91BF91AF919F918F917F916F915F91DF
:103190004F913F912F910F900BBE0F900FBE0F904C
:1031A0001F90189578941F920F920FB60F920BB63E
:1031B0000F9211241F932F933F934F935F936F931D
:1031C0007F938F939F93AF93BF93EF93FF930E944F
:1031D000260178941FB7F8948091B4019091B501BD
:1031E000A091B601B091B7010097A105B10509F012
:1031F00051C080912A0190912B018530910561F198
:103200008630910538F48330910559F0843091056A
:1032100061F519C087309105E9F08830910529F5ED
:1032200012C0869B0DC084E090E090932B018093A8
:103230002A0167E070E080E090E00E94180915C064
:103240000E943C0912C00E94CB0D882371F40E9499
:10325000D9090BC080E007C00E947C080E94AC091D
:103260000E944E0887E00E94C80980912501909134
:1032700026018130910581F482E090E0909326014F
:10328000809325010E949E010E949C0180E00E9483
:103290004F0B02C00E948A081FBFFF91EF91BF91A0
:1032A000AF919F918F917F916F915F914F913F91DE
:1032B0002F911F910F900BBE0F900FBE0F901F907C
:1032C000189578941F920F920FB60F9211240F90B9
:1032D0000FBE0F901F90189578941F920F920FB603
:1032E0000F9211240F900FBE0F901F901895789495
:1032F0001F920F920FB60F920BB60F9211246F927E
:103300007F928F929F92AF92BF92CF92DF92EF9275
:10331000FF920F931F932F933F934F935F936F935E
:103320007F938F939F93AF93BF93EF93FF93DF931D
:10333000CF930F92CDB7DEB7CCB4DDB480E286BFB9
:10334000BFB6F8940E942A017601E61AF70A002710
:10335000F7FC0095102FE60EF71E081F191F80912D
:103360002A0190912B018530910529F08630910535
:1033700009F07FC05CC086E090E090932B018093C1
:103380002A0181E08093A40110922C0180E00E9428
:1033900091098091AB019091AC018E96B801A70183
:1033A0000E94DA00E091AB01F091AC0185A5882381
:1033B00049F1208125503F01620E711CC301298310
:1033C0000E94C401AB01BC014E195F09600B710B77
:1033D000C3010E94DA000E940B0180E090E0298185
:1033E000622FA3010E94270A0E942401C3010E94A8
:1033F000C401AB01BC014E0D5F1D601F711FC301F5
:103400000E94DA008091AB019091AC0101960E947C
:10341000E50085FF03C081E080936B010E944E08A8
:103420000E9426010E94EF01882309F07BC01092C0
:10343000A4010E94AC098091AB019091AC0101966E
:103440000E94E50085FF0DC087E090E090932B017E
:1034500080932A0160E071E080E090E00E9418090A
:1034600003C080E00E94C8090E94EF01882309F48C
:1034700059C080912C01882379F58091A40188237B
:1034800059F581E08093A40180E00E9491090E9497
:10349000EF01A82E8091B902883090F4E091BE022D
:1034A000E80FE770F0E0EE0FFF1FEE0FFF1FEB5984
:1034B000FD4FE082F182028313838F5F8093B90214
:1034C00081E080932C01D092C401C092C3010E947C
:1034D000EF01882311F026C0AA248091A401813035
:1034E00009F51092A4010E94AC0910922C01AA20A7
:1034F000C9F48091C3019091C401C81AD90A2AE085
:10350000C216D10478F48091B902882319F0815051
:103510008093B9028091AB019091AC01009711F0BA
:103520000E948008BFBE0F90CF91DF91FF91EF9175
:10353000BF91AF919F918F917F916F915F914F91CB
:103540003F912F911F910F91FF90EF90DF90CF90BF
:10355000BF90AF909F908F907F906F900F900BBE19
:103560000F900FBE0F901F90189578941F920F9296
:103570000FB60F9211242F938F939F932FB7F89428
:103580008091D0019091D10101969093D1018093C7
:10359000D0012FBF9F918F912F910F900FBE0F9051
:1035A0001F9018951F920F920FB60F9211240F9033
:1035B0000FBE0F901F9018951F920F920FB60F928B
:1035C00011240F900FBE0F901F9018951F920F920D
:1035D0000FB60F9211240F900FBE0F901F901895E9
:1035E0001F920F920FB60F9211240F900FBE0F90E3
:1035F0001F9018951F920F920FB60F9211240F90E3
:103600000FBE0F901F9018951F920F920FB60F923A
:1036100011240F900FBE0F901F9018951F920F92BC
:103620000FB60F920BB60F9211242F933F934F9327
:103630005F936F937F938F939F93AF93BF93EF931A
:10364000FF9380919101909192018130910549F40D
:1036500082E090E090939201809391010E94D10BBF
:1036600005C080919F018F5F80939F01FF91EF9133
:10367000BF91AF919F918F917F916F915F914F918A
:103680003F912F910F900BBE0F900FBE0F901F9088
:1036900018951F920F920FB60F9211240F900FBE24
:1036A0000F901F9018951F920F920FB60F920BB6A6
:1036B0000F9211242F933F934F935F936F937F93B8
:1036C0008F939F93AF93BF93EF93FF932FB180910D
:1036D000140290911502009739F0E091CC01F0911D
:1036E000CD01E80FF91F20838091CC019091CD018D
:1036F00001969093CD018093CC0180E00E94F3016C
:103700002091CC013091CD0180914E0190914F01DB
:103710002817390718F40E94F40517C08091140285
:103720009091150210921502109214021092C50287
:103730001092C40210924F0110924E011092CD01CE
:103740001092CC012FB10E94250CFF91EF91BF91F7
:10375000AF919F918F917F916F915F914F913F9129
:103760002F910F900BBE0F900FBE0F901F901895CA
:103770001F920F920FB60F920BB60F9211240F9358
:103780001F932F933F934F935F936F937F938F93E9
:103790009F93AF93BF93EF93FF9384B195B17894C8
:1037A0004FB7F89430919801232F269521703170EE
:1037B0004FBF3323D1F433983091C601313019F023
:1037C000323039F50AC0222351F090934D02809394
:1037D0004C0280E10E94F9011CC0222319F40E94CE
:1037E0003F0517C01092C60114C08FB7F8948FBF61
:1037F0000FB7F89416B117761061812F0E948F00D1
:10380000177B812F0E948F00812F80680E948F007C
:103810000FBFFF91EF91BF91AF919F918F917F91DA
:103820006F915F914F913F912F911F910F910F9049
:103830000BBE0F900FBE0F901F9018951F920F9206
:103840000FB60F920BB60F9211242F933F934F9305
:103850005F936F937F938F939F93AF93BF93EF93F8
:10386000FF930E94AE0080914101873079F48091EE
:103870004201813009F0ACC084E08093410181E0D5
:103880000E94CE0081E00E94BA0054C0843009F04A
:103890006AC02091420180915F02909151012130D4
:1038A000D9F58917D8F490917300E091A001F091B7
:1038B000A101E80FF11D908320915F0230E080911B
:1038C000510190E001972817390701F58091CC024A
:1038D00082FD1CC080E00E94BA0018C080E00E94F7
:1038E0009A008091CC0281FF08C08D7F8093CC022A
:1038F0000E94890A8091710003C080E00E94CE007E
:103900000E94950081E0809341017AC080915F021E
:103910008F5F80935F0272C0891778F4E091A001F5
:10392000F091A101E80FF11D9081909373008F5FDA
:1039300080935F020E9495004BC080E00E949A0035
:103940008091CC0281FF06C08D7F8093CC020E94C3
:10395000890A03C080E00E94CE000E94950081E0A9
:10396000809341012CC0853099F58091CC028E7FE7
:103970008093CC0280E00E94C40080917100887F17
:10398000883001F180917100887F8031D9F00E94E8
:10399000AE0080E00E949A0080E00E94A4000E9495
:1039A00095000E94AE0081E00E94A4000E94950054
:1039B00081E08093410180914201882309F50E94B2
:1039C000E60A1EC083E08093410181E00E94BA00B4
:1039D000809141018330A1F4909142018091AD0129
:1039E000913031F4880F81608093730087E004C0C8
:1039F000880F8093730084E0809341010E949500BA
:103A0000FF91EF91BF91AF919F918F917F916F91B6
:103A10005F914F913F912F910F900BBE0F900FBE72
:103A20000F901F901895ACE2B0E0E9E1FDE10C9435
:103A3000A01E29833A834B835C836D837E838F83AF
:103A40009887A986BA86CB86DC86ED86FE860F87A8
:103A5000188B69807A808B809C8069A27AA28BA265
:103A60009CA2840173018FEF9FEFA0E0B0E0E822F9
:103A7000F9220A231B2314014424552469847A84DF
:103A80008B849C846DA27EA28FA298A664015301B0
:103A9000A822B922CA22DB22340188249924C60133
:103AA000B501A80197010E94811E69A77AA78BA77B
:103AB0009CA7C401B3010E94811E7B018C01C60139
:103AC000B501A20191010E94811E5B016C01C4013C
:103AD000B3010E94811E9B01AC01EA0CFB1C0C1D72
:103AE0001D1D69A47AA48BA49CA4C401AA27BB278A
:103AF000E80EF91E0A1F1B1FEA14FB040C051D0526
:103B000020F4205030404F4F5F4FC801AA27BB27F9
:103B1000820F931FA41FB51F8D8F9E8FAF8FB8A3E9
:103B20008701FF24EE2429A53AA54BA55CA540708A
:103B30005070E20EF31E041F151FE98EFA8E0B8FD4
:103B40001C8FDE2CAA8CCB8C6C8C8D8B8E8D8E8BEF
:103B50008F8D8F8B88A1888F2D853E854F855889C5
:103B600069A17AA18BA19CA10E94811E7B018C017D
:103B70002D813E814F8158856DA17EA18FA198A591
:103B80000E94811EE60EF71E081F191F6D897E898F
:103B90008F89988D6E0D7F1D801F911F6D8B7E8B81
:103BA0008F8B988F7E892D2D3A2D4C2D562D8F89F8
:103BB000988DAC96E2E10C94BC1E0F93DF93CF93EB
:103BC000CDB7DEB760970FB6F894DEBF0FBECDBF9E
:103BD000002309F459C029833A834B835C836D83A6
:103BE0007E838F839887E0E2E01B2D813E814F81A9
:103BF00058851E16BCF01D861E861F86188A8E2FBD
:103C0000992787FD9095909581959F4F04C0569573
:103C10004795379527958A95D2F729873A874B8715
:103C20005C872AC0CA01B901002E04C09695879509
:103C3000779567950A94D2F76D877E878F87988BE3
:103C4000DA01C90104C0880F991FAA1FBB1FEA959A
:103C5000D2F729813A814B815C8104C05695479502
:103C6000379527950A95D2F7822B932BA42BB52B4A
:103C700089879A87AB87BC8729853A854B855C8580
:103C80006D857E858F85988960960FB6F894DEBF26
:103C90000FBECDBFCF91DF910F910895991B79E0B1
:103CA00004C0991F961708F0961B881F7A95C9F7CC
:103CB00080950895AA1BBB1B51E107C0AA1FBB1F1B
:103CC000A617B70710F0A61BB70B881F991F5A95A8
:103CD000A9F780959095BC01CD01089597FB092E19
:103CE00007260AD077FD04D0E5DF06D000201AF4BD
:103CF000709561957F4F0895F6F7909581959F4F48
:103D00000895629FD001739FF001829FE00DF11D25
:103D1000649FE00DF11D929FF00D839FF00D749F45
:103D2000F00D659FF00D9927729FB00DE11DF91FF1
:103D3000639FB00DE11DF91FBD01CF01112408954E
:103D40002F923F924F925F926F927F928F929F92AB
:103D5000AF92BF92CF92DF92EF92FF920F931F9399
:103D6000CF93DF93CDB7DEB7CA1BDB0B0FB6F8944A
:103D7000DEBF0FBECDBF09942A88398848885F848A
:103D80006E847D848C849B84AA84B984C884DF80FB
:103D9000EE80FD800C811B81AA81B981CE0FD11DDF
:103DA0000FB6F894DEBF0FBECDBFED010895DC0164
:103DB00001C06D9341505040E0F70895F894FFCF53
:103DC000010001FFFFFFFF010022FFFFFF070202CA
:103DD0000101FFFF02FF01021E03040102060500AC
:00000001FF
